{
  "_format": "hh-sol-artifact-1",
  "contractName": "MigrationStaking",
  "sourceName": "contracts/v4migration/MigrationStaking.sol",
  "abi": [
    {
      "inputs": [
        {
          "internalType": "address",
          "name": "_router",
          "type": "address"
        },
        {
          "internalType": "address",
          "name": "_migration",
          "type": "address"
        }
      ],
      "stateMutability": "nonpayable",
      "type": "constructor"
    },
    {
      "inputs": [
        {
          "internalType": "address",
          "name": "datatokenAddress",
          "type": "address"
        },
        {
          "internalType": "address",
          "name": "stakeToken",
          "type": "address"
        },
        {
          "internalType": "uint256",
          "name": "amount",
          "type": "uint256"
        }
      ],
      "name": "Stake",
      "outputs": [],
      "stateMutability": "nonpayable",
      "type": "function"
    },
    {
      "inputs": [
        {
          "internalType": "address",
          "name": "datatokenAddress",
          "type": "address"
        },
        {
          "internalType": "address",
          "name": "stakeToken",
          "type": "address"
        },
        {
          "internalType": "uint256",
          "name": "dtAmountIn",
          "type": "uint256"
        },
        {
          "internalType": "uint256",
          "name": "poolAmountOut",
          "type": "uint256"
        }
      ],
      "name": "UnStake",
      "outputs": [],
      "stateMutability": "nonpayable",
      "type": "function"
    },
    {
      "inputs": [
        {
          "internalType": "address",
          "name": "datatokenAddress",
          "type": "address"
        },
        {
          "internalType": "address",
          "name": "stakeToken",
          "type": "address"
        },
        {
          "internalType": "uint256",
          "name": "amount",
          "type": "uint256"
        }
      ],
      "name": "canStake",
      "outputs": [
        {
          "internalType": "bool",
          "name": "",
          "type": "bool"
        }
      ],
      "stateMutability": "view",
      "type": "function"
    },
    {
      "inputs": [
        {
          "internalType": "address",
          "name": "datatokenAddress",
          "type": "address"
        },
        {
          "internalType": "address",
          "name": "stakeToken",
          "type": "address"
        },
        {
          "internalType": "uint256",
          "name": "lptIn",
          "type": "uint256"
        }
      ],
      "name": "canUnStake",
      "outputs": [
        {
          "internalType": "bool",
          "name": "",
          "type": "bool"
        }
      ],
      "stateMutability": "view",
      "type": "function"
    },
    {
      "inputs": [
        {
          "internalType": "address",
          "name": "datatokenAddress",
          "type": "address"
        }
      ],
      "name": "getBaseTokenAddress",
      "outputs": [
        {
          "internalType": "address",
          "name": "",
          "type": "address"
        }
      ],
      "stateMutability": "view",
      "type": "function"
    },
    {
      "inputs": [
        {
          "internalType": "address",
          "name": "datatokenAddress",
          "type": "address"
        }
      ],
      "name": "getBaseTokenBalance",
      "outputs": [
        {
          "internalType": "uint256",
          "name": "",
          "type": "uint256"
        }
      ],
      "stateMutability": "view",
      "type": "function"
    },
    {
      "inputs": [
        {
          "internalType": "address",
          "name": "datatokenAddress",
          "type": "address"
        }
      ],
      "name": "getDataTokenBalance",
      "outputs": [
        {
          "internalType": "uint256",
          "name": "",
          "type": "uint256"
        }
      ],
      "stateMutability": "view",
      "type": "function"
    },
    {
      "inputs": [
        {
          "internalType": "address",
          "name": "datatokenAddress",
          "type": "address"
        }
      ],
      "name": "getDataTokenCirculatingSupply",
      "outputs": [
        {
          "internalType": "uint256",
          "name": "",
          "type": "uint256"
        }
      ],
      "stateMutability": "view",
      "type": "function"
    },
    {
      "inputs": [
        {
          "internalType": "address",
          "name": "datatokenAddress",
          "type": "address"
        }
      ],
      "name": "getPoolAddress",
      "outputs": [
        {
          "internalType": "address",
          "name": "",
          "type": "address"
        }
      ],
      "stateMutability": "view",
      "type": "function"
    },
    {
      "inputs": [
        {
          "internalType": "address",
          "name": "datatokenAddress",
          "type": "address"
        }
      ],
      "name": "getPublisherAddress",
      "outputs": [
        {
          "internalType": "address",
          "name": "",
          "type": "address"
        }
      ],
      "stateMutability": "view",
      "type": "function"
    },
    {
      "inputs": [],
      "name": "migration",
      "outputs": [
        {
          "internalType": "address",
          "name": "",
          "type": "address"
        }
      ],
      "stateMutability": "view",
      "type": "function"
    },
    {
      "inputs": [
        {
          "internalType": "address",
          "name": "datatokenAddress",
          "type": "address"
        },
        {
          "internalType": "address",
          "name": "basetokenAddress",
          "type": "address"
        },
        {
          "internalType": "address",
          "name": "poolAddress",
          "type": "address"
        },
        {
          "internalType": "address",
          "name": "publisherAddress",
          "type": "address"
        },
        {
          "internalType": "uint256[]",
          "name": "ssParams",
          "type": "uint256[]"
        }
      ],
      "name": "newDatatokenCreated",
      "outputs": [
        {
          "internalType": "bool",
          "name": "",
          "type": "bool"
        }
      ],
      "stateMutability": "nonpayable",
      "type": "function"
    },
    {
      "inputs": [],
      "name": "router",
      "outputs": [
        {
          "internalType": "address",
          "name": "",
          "type": "address"
        }
      ],
      "stateMutability": "view",
      "type": "function"
    }
  ],
  "bytecode": "0x60806040523480156200001157600080fd5b50604051620018fe380380620018fe833981016040819052620000349162000083565b600080546001600160a01b039384166001600160a01b03199182161790915560018054929093169116179055620000bb565b80516001600160a01b03811681146200007e57600080fd5b919050565b600080604083850312156200009757600080fd5b620000a28362000066565b9150620000b26020840162000066565b90509250929050565b61183380620000cb6000396000f3fe608060405234801561001057600080fd5b50600436106100cf5760003560e01c806388afadce1161008c578063c4be249011610066578063c4be2490146101bc578063efd48103146101cf578063f887ea40146101e2578063fa93fd6d146101f557600080fd5b806388afadce1461017557806399039fcf14610196578063c1b4904d146101a957600080fd5b80631228cbee146100d45780631705a3bd146101045780631f16cde61461011757806326b1f01f1461012a5780637b01ab301461014d57806383b87e5a14610162575b600080fd5b6100e76100e23660046114a3565b610208565b6040516001600160a01b0390911681526020015b60405180910390f35b6001546100e7906001600160a01b031681565b6100e76101253660046114a3565b610257565b61013d6101383660046115d7565b6102a6565b60405190151581526020016100fb565b61016061015b366004611618565b610382565b005b61013d6101703660046114dd565b61043f565b6101886101833660046114a3565b610cb6565b6040519081526020016100fb565b6101606101a43660046115d7565b610d18565b6101886101b73660046114a3565b610e5f565b6101886101ca3660046114a3565b610eac565b61013d6101dd3660046115d7565b610ef8565b6000546100e7906001600160a01b031681565b6100e76102033660046114a3565b611010565b6001600160a01b03811660009081526002602052604081205460ff16151560011461023557506000919050565b506001600160a01b039081166000908152600260205260409020600101541690565b6001600160a01b03811660009081526002602052604081205460ff16151560011461028457506000919050565b506001600160a01b039081166000908152600260205260409020600501541690565b6001600160a01b0383811660009081526002602052604081206001015490911633146102ed5760405162461bcd60e51b81526004016102e4906116ed565b60405180910390fd5b6001600160a01b03841660009081526002602052604090205460ff16151560011461031a5750600061037b565b6001600160a01b0384811660009081526002602052604090205461010090048116908416141561034c5750600061037b565b6001600160a01b0384166000908152600260208190526040909120015482116103775750600161037b565b5060005b9392505050565b6001600160a01b03841660009081526002602052604090205460ff1615156001146103ac57610439565b6001600160a01b038481166000908152600260205260409020600101541633146103e85760405162461bcd60e51b81526004016102e4906116ed565b60006103f5858584610ef8565b90506001811515146104075750610439565b6001600160a01b03851660009081526002602081905260408220018054859290610432908490611755565b9091555050505b50505050565b600080546001600160a01b031633146104885760405162461bcd60e51b815260206004820152600b60248201526a27a7262c902927aaaa22a960a91b60448201526064016102e4565b6001600160a01b0384166104d45760405162461bcd60e51b8152602060048201526013602482015272496e76616c696420706f6f6c4164647265737360681b60448201526064016102e4565b6000849050306001600160a01b0316816001600160a01b0316633018205f6040518163ffffffff1660e01b815260040160206040518083038186803b15801561051c57600080fd5b505afa158015610530573d6000803e3d6000fd5b505050506040513d601f19601f8201168201806040525081019061055491906114c0565b6001600160a01b0316146105aa5760405162461bcd60e51b815260206004820152601e60248201527f576520617265206e6f742074686520706f6f6c20636f6e74726f6c6c6572000060448201526064016102e4565b6001546001600160a01b038581169116146106075760405162461bcd60e51b815260206004820152601760248201527f4f4e4c59204d4947524154494f4e20434f4e545241435400000000000000000060448201526064016102e4565b866001600160a01b0316816001600160a01b031663458c3fb56040518163ffffffff1660e01b815260040160206040518083038186803b15801561064a57600080fd5b505afa15801561065e573d6000803e3d6000fd5b505050506040513d601f19601f8201168201806040525081019061068291906114c0565b6001600160a01b0316146106d85760405162461bcd60e51b815260206004820152601b60248201527f44617461746f6b656e2061646472657373206d6973736d61746368000000000060448201526064016102e4565b856001600160a01b0316816001600160a01b0316634df947d06040518163ffffffff1660e01b815260040160206040518083038186803b15801561071b57600080fd5b505afa15801561072f573d6000803e3d6000fd5b505050506040513d601f19601f8201168201806040525081019061075391906114c0565b6001600160a01b0316146107a95760405162461bcd60e51b815260206004820152601b60248201527f42617365746f6b656e2061646472657373206d6973736d61746368000000000060448201526064016102e4565b604051623d104160e31b815230600482015287906001600160a01b038216906301e8820890602401604080518083038186803b1580156107e857600080fd5b505afa1580156107fc573d6000803e3d6000fd5b505050506040513d601f19601f820116820180604052508101906108209190611679565b5115156001146108725760405162461bcd60e51b815260206004820152601a60248201527f42617365746f6b656e2061646472657373206d69736d6174636800000000000060448201526064016102e4565b806001600160a01b03166340c10f1930836001600160a01b031663355274ea6040518163ffffffff1660e01b815260040160206040518083038186803b1580156108bb57600080fd5b505afa1580156108cf573d6000803e3d6000fd5b505050506040513d601f19601f820116820180604052508101906108f391906116d4565b6040516001600160e01b031960e085901b1681526001600160a01b0390921660048301526024820152604401600060405180830381600087803b15801561093957600080fd5b505af115801561094d573d6000803e3d6000fd5b50505050806001600160a01b03166318160ddd6040518163ffffffff1660e01b815260040160206040518083038186803b15801561098a57600080fd5b505afa15801561099e573d6000803e3d6000fd5b505050506040513d601f19601f820116820180604052508101906109c291906116d4565b6040516370a0823160e01b81523060048201526001600160a01b038316906370a082319060240160206040518083038186803b158015610a0157600080fd5b505afa158015610a15573d6000803e3d6000fd5b505050506040513d601f19601f82011682018060405250810190610a3991906116d4565b14610a745760405162461bcd60e51b815260206004820152600b60248201526a135a5b9d0819985a5b195960aa1b60448201526064016102e4565b604051806101200160405280600115158152602001886001600160a01b03168152602001876001600160a01b03168152602001600015158152602001826001600160a01b03166318160ddd6040518163ffffffff1660e01b815260040160206040518083038186803b158015610ae957600080fd5b505afa158015610afd573d6000803e3d6000fd5b505050506040513d601f19601f82011682018060405250810190610b2191906116d4565b8152602001826001600160a01b031663355274ea6040518163ffffffff1660e01b815260040160206040518083038186803b158015610b5f57600080fd5b505afa158015610b73573d6000803e3d6000fd5b505050506040513d601f19601f82011682018060405250810190610b9791906116d4565b815260200185600481518110610baf57610baf6117b9565b60209081029190910181015182526001600160a01b0388811683830152436040938401528b81166000908152600280845284822086518154958801516001600160a81b0319968716911515610100600160a81b0319169190911761010091861682021782559587015160018201805460608a0151928716971696909617600160a01b911515919091021790945560808601519084015560a0850151600384015560c0850151600484015560e08501516005840180546001600160a01b031916919093161790915591909201516006909201919091558451610ca8918a91879190610c9b57610c9b6117b9565b6020026020010151611061565b506001979650505050505050565b6001600160a01b03811660009081526002602052604081205460ff161515600114610ce357506000919050565b6001600160a01b038216600090815260026020819052604090912090810154600390910154610d12919061178c565b92915050565b6001600160a01b03831660009081526002602052604090205460ff161515600114610d4257505050565b6001600160a01b03838116600090815260026020526040902060010154163314610d7e5760405162461bcd60e51b81526004016102e4906116ed565b6000610d8b8484846102a6565b9050600181151514610d9d5750505050565b6001600160a01b038481166000818152600260205260409081902060010154905163095ea7b360e01b81529216600483015260248201849052859163095ea7b390604401602060405180830381600087803b158015610dfb57600080fd5b505af1158015610e0f573d6000803e3d6000fd5b505050506040513d601f19601f82011682018060405250810190610e33919061165e565b506001600160a01b0385166000908152600260208190526040822001805485929061043290849061178c565b6001600160a01b03811660009081526002602052604081205460ff161515600114610e8c57506000919050565b506001600160a01b03166000908152600260208190526040909120015490565b6001600160a01b03811660009081526002602052604081205460ff161515600114610ed957506000919050565b506001600160a01b031660009081526002602052604090206004015490565b6001600160a01b03831660009081526002602052604081205460ff161515600114610f255750600061037b565b6001600160a01b03848116600090815260026020526040902060010154163314610f615760405162461bcd60e51b81526004016102e4906116ed565b6001600160a01b03848116600090815260026020526040902054610100900481169084161415610f935750600061037b565b6040516370a0823160e01b8152306004820152829033906370a082319060240160206040518083038186803b158015610fcb57600080fd5b505afa158015610fdf573d6000803e3d6000fd5b505050506040513d601f19601f8201168201806040525081019061100391906116d4565b106103775750600161037b565b6001600160a01b03811660009081526002602052604081205460ff16151560011461103d57506000919050565b506001600160a01b0390811660009081526002602052604090205461010090041690565b6001600160a01b03821660009081526002602052604090205460ff16151560011461108a575050565b6001600160a01b0382166000908152600260205260409020600190810154600160a01b900460ff16151514156110be575050565b6001600160a01b0382166000908152600260205260408120600101805460ff60a01b1916600160a01b1790556110fd670de0b6b3a7640000600561176d565b90506000611114670de0b6b3a7640000600561176d565b6001600160a01b0385811660008181526002602052604090819020600480820154600190920154925163095ea7b360e01b8152929094169382019390935260248101879052929350909186919063095ea7b390604401602060405180830381600087803b15801561118457600080fd5b505af1158015611198573d6000803e3d6000fd5b505050506040513d601f19601f820116820180604052508101906111bc919061165e565b506001600160a01b03868116600090815260026020526040908190208054600190910154915163095ea7b360e01b8152918316600483015260248201859052610100900490911690819063095ea7b390604401602060405180830381600087803b15801561122957600080fd5b505af115801561123d573d6000803e3d6000fd5b505050506040513d601f19601f82011682018060405250810190611261919061165e565b506001600160a01b03878116600081815260026020526040908190206001810154905491516309ef3f5b60e01b81526004810193909352602483018a905260448301889052610100909104831660648301526084820186905260a482018890529091169081906309ef3f5b9060c401600060405180830381600087803b1580156112ea57600080fd5b505af11580156112fe573d6000803e3d6000fd5b505050506001600160a01b0388166000908152600260205260408120600401805486929061132d90849061178c565b90915550506001600160a01b0388166000908152600260208190526040822001805489929061135d90849061178c565b90915550506001600160a01b0388811660009081526002602052604090819020600181015460059091015491516370a0823160e01b815230600482015290831692839263a9059cbb9291169083906370a082319060240160206040518083038186803b1580156113cc57600080fd5b505afa1580156113e0573d6000803e3d6000fd5b505050506040513d601f19601f8201168201806040525081019061140491906116d4565b6040516001600160e01b031960e085901b1681526001600160a01b0390921660048301526024820152604401602060405180830381600087803b15801561144a57600080fd5b505af115801561145e573d6000803e3d6000fd5b505050506040513d601f19601f82011682018060405250810190611482919061165e565b50505050505050505050565b8051801515811461149e57600080fd5b919050565b6000602082840312156114b557600080fd5b813561037b816117e5565b6000602082840312156114d257600080fd5b815161037b816117e5565b600080600080600060a086880312156114f557600080fd5b8535611500816117e5565b9450602086810135611511816117e5565b94506040870135611521816117e5565b93506060870135611531816117e5565b9250608087013567ffffffffffffffff8082111561154e57600080fd5b818901915089601f83011261156257600080fd5b813581811115611574576115746117cf565b8060051b9150611585848301611724565b8181528481019084860184860187018e10156115a057600080fd5b600095505b838610156115c35780358352600195909501949186019186016115a5565b508096505050505050509295509295909350565b6000806000606084860312156115ec57600080fd5b83356115f7816117e5565b92506020840135611607816117e5565b929592945050506040919091013590565b6000806000806080858703121561162e57600080fd5b8435611639816117e5565b93506020850135611649816117e5565b93969395505050506040820135916060013590565b60006020828403121561167057600080fd5b61037b8261148e565b60006040828403121561168b57600080fd5b6040516040810181811067ffffffffffffffff821117156116ae576116ae6117cf565b6040526116ba8361148e565b81526116c86020840161148e565b60208201529392505050565b6000602082840312156116e657600080fd5b5051919050565b6020808252601c908201527f4552523a204f6e6c7920706f6f6c2063616e2063616c6c207468697300000000604082015260600190565b604051601f8201601f1916810167ffffffffffffffff8111828210171561174d5761174d6117cf565b604052919050565b60008219821115611768576117686117a3565b500190565b6000816000190483118215151615611787576117876117a3565b500290565b60008282101561179e5761179e6117a3565b500390565b634e487b7160e01b600052601160045260246000fd5b634e487b7160e01b600052603260045260246000fd5b634e487b7160e01b600052604160045260246000fd5b6001600160a01b03811681146117fa57600080fd5b5056fea2646970667358221220c5038d80c4a83481085fa0df3a43d5d40af8c1e128152d562f15be57429cb8d164736f6c63430008070033",
  "linkReferences": {},
  "deployedLinkReferences": {}
}