{
  "_format": "hh-sol-artifact-1",
  "contractName": "MigrationStaking",
  "sourceName": "contracts/v4migration/MigrationStaking.sol",
  "abi": [
    {
      "inputs": [
        {
          "internalType": "address",
          "name": "_router",
          "type": "address"
        },
        {
          "internalType": "address",
          "name": "_migration",
          "type": "address"
        }
      ],
      "stateMutability": "nonpayable",
      "type": "constructor"
    },
    {
      "inputs": [
        {
          "internalType": "address",
          "name": "datatokenAddress",
          "type": "address"
        },
        {
          "internalType": "address",
          "name": "stakeToken",
          "type": "address"
        },
        {
          "internalType": "uint256",
          "name": "amount",
          "type": "uint256"
        }
      ],
      "name": "Stake",
      "outputs": [],
      "stateMutability": "nonpayable",
      "type": "function"
    },
    {
      "inputs": [
        {
          "internalType": "address",
          "name": "datatokenAddress",
          "type": "address"
        },
        {
          "internalType": "address",
          "name": "stakeToken",
          "type": "address"
        },
        {
          "internalType": "uint256",
          "name": "dtAmountIn",
          "type": "uint256"
        },
        {
          "internalType": "uint256",
          "name": "poolAmountOut",
          "type": "uint256"
        }
      ],
      "name": "UnStake",
      "outputs": [],
      "stateMutability": "nonpayable",
      "type": "function"
    },
    {
      "inputs": [
        {
          "internalType": "address",
          "name": "datatokenAddress",
          "type": "address"
        },
        {
          "internalType": "address",
          "name": "stakeToken",
          "type": "address"
        },
        {
          "internalType": "uint256",
          "name": "amount",
          "type": "uint256"
        }
      ],
      "name": "canStake",
      "outputs": [
        {
          "internalType": "bool",
          "name": "",
          "type": "bool"
        }
      ],
      "stateMutability": "view",
      "type": "function"
    },
    {
      "inputs": [
        {
          "internalType": "address",
          "name": "datatokenAddress",
          "type": "address"
        },
        {
          "internalType": "address",
          "name": "stakeToken",
          "type": "address"
        },
        {
          "internalType": "uint256",
          "name": "lptIn",
          "type": "uint256"
        }
      ],
      "name": "canUnStake",
      "outputs": [
        {
          "internalType": "bool",
          "name": "",
          "type": "bool"
        }
      ],
      "stateMutability": "view",
      "type": "function"
    },
    {
      "inputs": [
        {
          "internalType": "address",
          "name": "datatokenAddress",
          "type": "address"
        }
      ],
      "name": "getBaseTokenAddress",
      "outputs": [
        {
          "internalType": "address",
          "name": "",
          "type": "address"
        }
      ],
      "stateMutability": "view",
      "type": "function"
    },
    {
      "inputs": [
        {
          "internalType": "address",
          "name": "datatokenAddress",
          "type": "address"
        }
      ],
      "name": "getBaseTokenBalance",
      "outputs": [
        {
          "internalType": "uint256",
          "name": "",
          "type": "uint256"
        }
      ],
      "stateMutability": "view",
      "type": "function"
    },
    {
      "inputs": [
        {
          "internalType": "address",
          "name": "datatokenAddress",
          "type": "address"
        }
      ],
      "name": "getDataTokenBalance",
      "outputs": [
        {
          "internalType": "uint256",
          "name": "",
          "type": "uint256"
        }
      ],
      "stateMutability": "view",
      "type": "function"
    },
    {
      "inputs": [
        {
          "internalType": "address",
          "name": "datatokenAddress",
          "type": "address"
        }
      ],
      "name": "getDataTokenCirculatingSupply",
      "outputs": [
        {
          "internalType": "uint256",
          "name": "",
          "type": "uint256"
        }
      ],
      "stateMutability": "view",
      "type": "function"
    },
    {
      "inputs": [
        {
          "internalType": "address",
          "name": "datatokenAddress",
          "type": "address"
        }
      ],
      "name": "getPoolAddress",
      "outputs": [
        {
          "internalType": "address",
          "name": "",
          "type": "address"
        }
      ],
      "stateMutability": "view",
      "type": "function"
    },
    {
      "inputs": [
        {
          "internalType": "address",
          "name": "datatokenAddress",
          "type": "address"
        }
      ],
      "name": "getPublisherAddress",
      "outputs": [
        {
          "internalType": "address",
          "name": "",
          "type": "address"
        }
      ],
      "stateMutability": "view",
      "type": "function"
    },
    {
      "inputs": [],
      "name": "migration",
      "outputs": [
        {
          "internalType": "address",
          "name": "",
          "type": "address"
        }
      ],
      "stateMutability": "view",
      "type": "function"
    },
    {
      "inputs": [
        {
          "internalType": "address",
          "name": "datatokenAddress",
          "type": "address"
        },
        {
          "internalType": "address",
          "name": "basetokenAddress",
          "type": "address"
        },
        {
          "internalType": "address",
          "name": "poolAddress",
          "type": "address"
        },
        {
          "internalType": "address",
          "name": "publisherAddress",
          "type": "address"
        },
        {
          "internalType": "uint256[]",
          "name": "ssParams",
          "type": "uint256[]"
        }
      ],
      "name": "newDataTokenCreated",
      "outputs": [
        {
          "internalType": "bool",
          "name": "",
          "type": "bool"
        }
      ],
      "stateMutability": "nonpayable",
      "type": "function"
    },
    {
      "inputs": [],
      "name": "router",
      "outputs": [
        {
          "internalType": "address",
          "name": "",
          "type": "address"
        }
      ],
      "stateMutability": "view",
      "type": "function"
    }
  ],
  "bytecode": "0x60806040523480156200001157600080fd5b5060405162001b4438038062001b44833981016040819052620000349162000088565b6001600081905580546001600160a01b039384166001600160a01b03199182161790915560028054929093169116179055620000c0565b80516001600160a01b03811681146200008357600080fd5b919050565b600080604083850312156200009c57600080fd5b620000a7836200006b565b9150620000b7602084016200006b565b90509250929050565b611a7480620000d06000396000f3fe608060405234801561001057600080fd5b50600436106100cf5760003560e01c806388afadce1161008c578063c4be249011610066578063c4be2490146101bc578063efd48103146101cf578063f887ea40146101e2578063fa93fd6d146101f557600080fd5b806388afadce1461017557806399039fcf14610196578063c1b4904d146101a957600080fd5b80631228cbee146100d45780631705a3bd146101045780631f16cde61461011757806326b1f01f1461012a57806353f0c3b41461014d5780637b01ab3014610160575b600080fd5b6100e76100e236600461163c565b610208565b6040516001600160a01b0390911681526020015b60405180910390f35b6002546100e7906001600160a01b031681565b6100e761012536600461163c565b610257565b61013d610138366004611659565b6102a6565b60405190151581526020016100fb565b61013d61015b3660046116e1565b610381565b61017361016e3660046117d4565b610ba1565b005b61018861018336600461163c565b610c8a565b6040519081526020016100fb565b6101736101a4366004611659565b610cea565b6101886101b736600461163c565b610dfe565b6101886101ca36600461163c565b610e4a565b61013d6101dd366004611659565b610e96565b6001546100e7906001600160a01b031681565b6100e761020336600461163c565b610f9f565b6001600160a01b03811660009081526003602052604081205460ff16151560011461023557506000919050565b506001600160a01b039081166000908152600360205260409020600101541690565b6001600160a01b03811660009081526003602052604081205460ff16151560011461028457506000919050565b506001600160a01b039081166000908152600360205260409020600501541690565b6001600160a01b0383811660009081526003602052604081206001015490911633146102ed5760405162461bcd60e51b81526004016102e49061181a565b60405180910390fd5b6001600160a01b03841660009081526003602052604090205460ff16151560011461031a5750600061037a565b6001600160a01b0384811660009081526003602052604090205461010090048116908416141561034c5750600061037a565b6001600160a01b03841660009081526003602052604090206002015482116103765750600161037a565b5060005b9392505050565b6001546000906001600160a01b031633146103cc5760405162461bcd60e51b815260206004820152600b60248201526a27a7262c902927aaaa22a960a91b60448201526064016102e4565b600260005414156103ef5760405162461bcd60e51b81526004016102e490611851565b60026000556001600160a01b0384166104405760405162461bcd60e51b8152602060048201526013602482015272496e76616c696420706f6f6c4164647265737360681b60448201526064016102e4565b6000849050306001600160a01b0316816001600160a01b0316633018205f6040518163ffffffff1660e01b8152600401602060405180830381865afa15801561048d573d6000803e3d6000fd5b505050506040513d601f19601f820116820180604052508101906104b19190611888565b6001600160a01b0316146105075760405162461bcd60e51b815260206004820152601e60248201527f576520617265206e6f742074686520706f6f6c20636f6e74726f6c6c6572000060448201526064016102e4565b6002546001600160a01b038581169116146105645760405162461bcd60e51b815260206004820152601760248201527f4f4e4c59204d4947524154494f4e20434f4e545241435400000000000000000060448201526064016102e4565b866001600160a01b0316816001600160a01b03166304ad79546040518163ffffffff1660e01b8152600401602060405180830381865afa1580156105ac573d6000803e3d6000fd5b505050506040513d601f19601f820116820180604052508101906105d09190611888565b6001600160a01b0316146106265760405162461bcd60e51b815260206004820152601b60248201527f44617461546f6b656e2061646472657373206d6973736d61746368000000000060448201526064016102e4565b856001600160a01b0316816001600160a01b0316634df947d06040518163ffffffff1660e01b8152600401602060405180830381865afa15801561066e573d6000803e3d6000fd5b505050506040513d601f19601f820116820180604052508101906106929190611888565b6001600160a01b0316146106e85760405162461bcd60e51b815260206004820152601b60248201527f42617365546f6b656e2061646472657373206d6973736d61746368000000000060448201526064016102e4565b604051623d104160e31b815230600482015287906001600160a01b038216906301e88208906024016040805180830381865afa15801561072c573d6000803e3d6000fd5b505050506040513d601f19601f8201168201806040525081019061075091906118ba565b5115156001146107a25760405162461bcd60e51b815260206004820152601a60248201527f42617365546f6b656e2061646472657373206d69736d6174636800000000000060448201526064016102e4565b806001600160a01b03166340c10f1930836001600160a01b031663355274ea6040518163ffffffff1660e01b8152600401602060405180830381865afa1580156107f0573d6000803e3d6000fd5b505050506040513d601f19601f820116820180604052508101906108149190611915565b6040516001600160e01b031960e085901b1681526001600160a01b0390921660048301526024820152604401600060405180830381600087803b15801561085a57600080fd5b505af115801561086e573d6000803e3d6000fd5b50505050806001600160a01b03166318160ddd6040518163ffffffff1660e01b8152600401602060405180830381865afa1580156108b0573d6000803e3d6000fd5b505050506040513d601f19601f820116820180604052508101906108d49190611915565b6040516370a0823160e01b81523060048201526001600160a01b038316906370a0823190602401602060405180830381865afa158015610918573d6000803e3d6000fd5b505050506040513d601f19601f8201168201806040525081019061093c9190611915565b146109775760405162461bcd60e51b815260206004820152600b60248201526a135a5b9d0819985a5b195960aa1b60448201526064016102e4565b604051806101200160405280600115158152602001886001600160a01b03168152602001876001600160a01b03168152602001600015158152602001826001600160a01b03166318160ddd6040518163ffffffff1660e01b8152600401602060405180830381865afa1580156109f1573d6000803e3d6000fd5b505050506040513d601f19601f82011682018060405250810190610a159190611915565b8152602001826001600160a01b031663355274ea6040518163ffffffff1660e01b8152600401602060405180830381865afa158015610a58573d6000803e3d6000fd5b505050506040513d601f19601f82011682018060405250810190610a7c9190611915565b815260200185600481518110610a9457610a9461192e565b60209081029190910181015182526001600160a01b0388811683830152436040938401528b81166000908152600380845284822086518154958801516001600160a81b0319968716911515610100600160a81b0319169190911761010091861682021782559587015160018201805460608a0151928716971696909617600160a01b91151591909102179094556080860151600285015560a08601519084015560c0850151600484015560e08501516005840180546001600160a01b031916919093161790915591909201516006909201919091558451610b8d918a91879190610b8057610b8061192e565b6020026020010151610ff0565b600192505050600160005595945050505050565b60026000541415610bc45760405162461bcd60e51b81526004016102e490611851565b600260009081556001600160a01b03851681526003602052604090205460ff161515600114610bf257610c7f565b6001600160a01b03848116600090815260036020526040902060010154163314610c2e5760405162461bcd60e51b81526004016102e49061181a565b6000610c3b858584610e96565b9050600181151514610c4d5750610c7f565b6001600160a01b03851660009081526003602052604081206002018054859290610c7890849061195a565b9091555050505b505060016000555050565b6001600160a01b03811660009081526003602052604081205460ff161515600114610cb757506000919050565b6001600160a01b03821660009081526003602081905260409091206002810154910154610ce49190611972565b92915050565b60026000541415610d0d5760405162461bcd60e51b81526004016102e490611851565b600260009081556001600160a01b03841681526003602052604090205460ff161515600114610d3b57610df4565b6001600160a01b03838116600090815260036020526040902060010154163314610d775760405162461bcd60e51b81526004016102e49061181a565b6000610d848484846102a6565b9050600181151514610d965750610df4565b6001600160a01b038085166000818152600360205260409020600101548692610dc1929116856112ba565b6001600160a01b03851660009081526003602052604081206002018054859290610dec908490611972565b909155505050505b5050600160005550565b6001600160a01b03811660009081526003602052604081205460ff161515600114610e2b57506000919050565b506001600160a01b031660009081526003602052604090206002015490565b6001600160a01b03811660009081526003602052604081205460ff161515600114610e7757506000919050565b506001600160a01b031660009081526003602052604090206004015490565b6001600160a01b03831660009081526003602052604081205460ff161515600114610ec35750600061037a565b6001600160a01b03848116600090815260036020526040902060010154163314610eff5760405162461bcd60e51b81526004016102e49061181a565b6001600160a01b03848116600090815260036020526040902054610100900481169084161415610f315750600061037a565b6040516370a0823160e01b8152306004820152829033906370a0823190602401602060405180830381865afa158015610f6e573d6000803e3d6000fd5b505050506040513d601f19601f82011682018060405250810190610f929190611915565b106103765750600161037a565b6001600160a01b03811660009081526003602052604081205460ff161515600114610fcc57506000919050565b506001600160a01b0390811660009081526003602052604090205461010090041690565b6001600160a01b03821660009081526003602052604090205460ff161515600114611019575050565b6001600160a01b0382166000908152600360205260409020600190810154600160a01b900460ff161515141561104d575050565b6001600160a01b0382166000908152600360205260408120600101805460ff60a01b1916600160a01b17905561108c670de0b6b3a76400006005611989565b905060006110a3670de0b6b3a76400006005611989565b6001600160a01b03808616600081815260036020526040902060048101546001909101549394509287926110d9929116876112ba565b6001600160a01b038087166000908152600360205260409020805460019091015461010090910482169161111091839116856112ba565b6001600160a01b03878116600081815260036020526040908190206001810154905491516309ef3f5b60e01b81526004810193909352602483018a905260448301889052610100909104831660648301526084820186905260a482018890529091169081906309ef3f5b9060c401600060405180830381600087803b15801561119857600080fd5b505af11580156111ac573d6000803e3d6000fd5b505050506001600160a01b038816600090815260036020526040812060040180548692906111db908490611972565b90915550506001600160a01b0388166000908152600360205260408120600201805489929061120b908490611972565b90915550506001600160a01b0388811660009081526003602052604090819020600181015460059091015491516370a0823160e01b8152306004820152908316926112af92169083906370a0823190602401602060405180830381865afa15801561127a573d6000803e3d6000fd5b505050506040513d601f19601f8201168201806040525081019061129e9190611915565b6001600160a01b03841691906113a5565b505050505050505050565b604051636eb1769f60e11b81523060048201526001600160a01b038381166024830152600091839186169063dd62ed3e90604401602060405180830381865afa15801561130b573d6000803e3d6000fd5b505050506040513d601f19601f8201168201806040525081019061132f9190611915565b611339919061195a565b6040516001600160a01b03851660248201526044810182905290915061139f90859063095ea7b360e01b906064015b60408051601f198184030181529190526020810180516001600160e01b03166001600160e01b0319909316929092179091526113da565b50505050565b6040516001600160a01b0383166024820152604481018290526113d590849063a9059cbb60e01b90606401611368565b505050565b600061142f826040518060400160405280602081526020017f5361666545524332303a206c6f772d6c6576656c2063616c6c206661696c6564815250856001600160a01b03166114ac9092919063ffffffff16565b8051909150156113d5578080602001905181019061144d91906119a8565b6113d55760405162461bcd60e51b815260206004820152602a60248201527f5361666545524332303a204552433230206f7065726174696f6e20646964206e6044820152691bdd081cdd58d8d9595960b21b60648201526084016102e4565b60606114bb84846000856114c3565b949350505050565b6060824710156115245760405162461bcd60e51b815260206004820152602660248201527f416464726573733a20696e73756666696369656e742062616c616e636520666f6044820152651c8818d85b1b60d21b60648201526084016102e4565b843b6115725760405162461bcd60e51b815260206004820152601d60248201527f416464726573733a2063616c6c20746f206e6f6e2d636f6e747261637400000060448201526064016102e4565b600080866001600160a01b0316858760405161158e91906119ef565b60006040518083038185875af1925050503d80600081146115cb576040519150601f19603f3d011682016040523d82523d6000602084013e6115d0565b606091505b50915091506115e08282866115eb565b979650505050505050565b606083156115fa57508161037a565b82511561160a5782518084602001fd5b8160405162461bcd60e51b81526004016102e49190611a0b565b6001600160a01b038116811461163957600080fd5b50565b60006020828403121561164e57600080fd5b813561037a81611624565b60008060006060848603121561166e57600080fd5b833561167981611624565b9250602084013561168981611624565b929592945050506040919091013590565b634e487b7160e01b600052604160045260246000fd5b604051601f8201601f1916810167ffffffffffffffff811182821017156116d9576116d961169a565b604052919050565b600080600080600060a086880312156116f957600080fd5b853561170481611624565b945060208681013561171581611624565b9450604087013561172581611624565b9350606087013561173581611624565b9250608087013567ffffffffffffffff8082111561175257600080fd5b818901915089601f83011261176657600080fd5b8135818111156117785761177861169a565b8060051b91506117898483016116b0565b818152918301840191848101908c8411156117a357600080fd5b938501935b838510156117c1578435825293850193908501906117a8565b8096505050505050509295509295909350565b600080600080608085870312156117ea57600080fd5b84356117f581611624565b9350602085013561180581611624565b93969395505050506040820135916060013590565b6020808252601c908201527f4552523a204f6e6c7920706f6f6c2063616e2063616c6c207468697300000000604082015260600190565b6020808252601f908201527f5265656e7472616e637947756172643a207265656e7472616e742063616c6c00604082015260600190565b60006020828403121561189a57600080fd5b815161037a81611624565b805180151581146118b557600080fd5b919050565b6000604082840312156118cc57600080fd5b6040516040810181811067ffffffffffffffff821117156118ef576118ef61169a565b6040526118fb836118a5565b8152611909602084016118a5565b60208201529392505050565b60006020828403121561192757600080fd5b5051919050565b634e487b7160e01b600052603260045260246000fd5b634e487b7160e01b600052601160045260246000fd5b6000821982111561196d5761196d611944565b500190565b60008282101561198457611984611944565b500390565b60008160001904831182151516156119a3576119a3611944565b500290565b6000602082840312156119ba57600080fd5b61037a826118a5565b60005b838110156119de5781810151838201526020016119c6565b8381111561139f5750506000910152565b60008251611a018184602087016119c3565b9190910192915050565b6020815260008251806020840152611a2a8160408501602087016119c3565b601f01601f1916919091016040019291505056fea264697066735822122027236129e8ab3e329a573c4477b6c7f0d5cc6cc402385225b6c26913523a35e164736f6c634300080a0033",
  "linkReferences": {},
  "deployedLinkReferences": {}
}