{
  "_format": "hh-sol-artifact-1",
  "contractName": "V4Migration",
  "sourceName": "contracts/v4migration/V4Migration.sol",
  "abi": [
    {
      "inputs": [
        {
          "internalType": "address",
          "name": "_ERC721FactoryAddress",
          "type": "address"
        },
        {
          "internalType": "address",
          "name": "_oceanAddress",
          "type": "address"
        },
        {
          "internalType": "address",
          "name": "_poolTemplate",
          "type": "address"
        },
        {
          "internalType": "address",
          "name": "_staking",
          "type": "address"
        }
      ],
      "stateMutability": "nonpayable",
      "type": "constructor"
    },
    {
      "anonymous": false,
      "inputs": [
        {
          "indexed": false,
          "internalType": "address",
          "name": "poolAddress",
          "type": "address"
        },
        {
          "indexed": false,
          "internalType": "uint256",
          "name": "date",
          "type": "uint256"
        }
      ],
      "name": "Cancelled",
      "type": "event"
    },
    {
      "anonymous": false,
      "inputs": [
        {
          "indexed": false,
          "internalType": "address",
          "name": "poolAddress",
          "type": "address"
        },
        {
          "indexed": false,
          "internalType": "enum V4Migration.migrationStatus",
          "name": "status",
          "type": "uint8"
        }
      ],
      "name": "Completed",
      "type": "event"
    },
    {
      "anonymous": false,
      "inputs": [
        {
          "indexed": false,
          "internalType": "address",
          "name": "nftAddress",
          "type": "address"
        },
        {
          "indexed": false,
          "internalType": "address",
          "name": "newDTAddress",
          "type": "address"
        },
        {
          "indexed": false,
          "internalType": "address",
          "name": "newPool",
          "type": "address"
        },
        {
          "indexed": false,
          "internalType": "address",
          "name": "v3DTAddress",
          "type": "address"
        },
        {
          "indexed": false,
          "internalType": "uint256",
          "name": "lptRounding",
          "type": "uint256"
        }
      ],
      "name": "NewPool",
      "type": "event"
    },
    {
      "anonymous": false,
      "inputs": [
        {
          "indexed": false,
          "internalType": "address",
          "name": "newStakingContract",
          "type": "address"
        },
        {
          "indexed": false,
          "internalType": "uint256",
          "name": "date",
          "type": "uint256"
        }
      ],
      "name": "NewStakingContract",
      "type": "event"
    },
    {
      "anonymous": false,
      "inputs": [
        {
          "indexed": true,
          "internalType": "address",
          "name": "previousOwner",
          "type": "address"
        },
        {
          "indexed": true,
          "internalType": "address",
          "name": "newOwner",
          "type": "address"
        }
      ],
      "name": "OwnershipTransferred",
      "type": "event"
    },
    {
      "anonymous": false,
      "inputs": [
        {
          "indexed": false,
          "internalType": "address",
          "name": "poolAddress",
          "type": "address"
        },
        {
          "indexed": false,
          "internalType": "uint256",
          "name": "date",
          "type": "uint256"
        }
      ],
      "name": "Started",
      "type": "event"
    },
    {
      "inputs": [],
      "name": "ERC721FactoryAddress",
      "outputs": [
        {
          "internalType": "address",
          "name": "",
          "type": "address"
        }
      ],
      "stateMutability": "view",
      "type": "function"
    },
    {
      "inputs": [
        {
          "internalType": "address",
          "name": "_poolAddress",
          "type": "address"
        },
        {
          "internalType": "uint256",
          "name": "noOfShares",
          "type": "uint256"
        }
      ],
      "name": "addShares",
      "outputs": [],
      "stateMutability": "nonpayable",
      "type": "function"
    },
    {
      "inputs": [],
      "name": "blocksWindow",
      "outputs": [
        {
          "internalType": "uint256",
          "name": "",
          "type": "uint256"
        }
      ],
      "stateMutability": "view",
      "type": "function"
    },
    {
      "inputs": [
        {
          "internalType": "address",
          "name": "poolAddress",
          "type": "address"
        }
      ],
      "name": "cancelMigration",
      "outputs": [],
      "stateMutability": "nonpayable",
      "type": "function"
    },
    {
      "inputs": [
        {
          "internalType": "address",
          "name": "v3poolAddress",
          "type": "address"
        }
      ],
      "name": "getPoolStatus",
      "outputs": [
        {
          "components": [
            {
              "internalType": "enum V4Migration.migrationStatus",
              "name": "status",
              "type": "uint8"
            },
            {
              "internalType": "address",
              "name": "poolV3Address",
              "type": "address"
            },
            {
              "internalType": "address",
              "name": "poolV4Address",
              "type": "address"
            },
            {
              "internalType": "string",
              "name": "didV3",
              "type": "string"
            },
            {
              "internalType": "string",
              "name": "didV4",
              "type": "string"
            },
            {
              "internalType": "address",
              "name": "owner",
              "type": "address"
            },
            {
              "internalType": "address[]",
              "name": "poolShareOwners",
              "type": "address[]"
            },
            {
              "internalType": "address",
              "name": "dtV3Address",
              "type": "address"
            },
            {
              "internalType": "uint256",
              "name": "totalOcean",
              "type": "uint256"
            },
            {
              "internalType": "uint256",
              "name": "totalDTBurnt",
              "type": "uint256"
            },
            {
              "internalType": "uint256",
              "name": "newLPTAmount",
              "type": "uint256"
            },
            {
              "internalType": "uint256",
              "name": "lptRounding",
              "type": "uint256"
            },
            {
              "internalType": "uint256",
              "name": "deadline",
              "type": "uint256"
            }
          ],
          "internalType": "struct V4Migration.PoolStatus",
          "name": "",
          "type": "tuple"
        }
      ],
      "stateMutability": "view",
      "type": "function"
    },
    {
      "inputs": [
        {
          "internalType": "address",
          "name": "poolAddress",
          "type": "address"
        },
        {
          "internalType": "address",
          "name": "userAddress",
          "type": "address"
        }
      ],
      "name": "getShareAllocation",
      "outputs": [
        {
          "components": [
            {
              "internalType": "uint256",
              "name": "userV3Shares",
              "type": "uint256"
            },
            {
              "internalType": "uint256",
              "name": "userV4Shares",
              "type": "uint256"
            },
            {
              "internalType": "bool",
              "name": "alreadyAdded",
              "type": "bool"
            }
          ],
          "internalType": "struct V4Migration.shareAllocation",
          "name": "",
          "type": "tuple"
        }
      ],
      "stateMutability": "view",
      "type": "function"
    },
    {
      "inputs": [
        {
          "internalType": "address",
          "name": "v3poolAddress",
          "type": "address"
        }
      ],
      "name": "getTokensDetails",
      "outputs": [
        {
          "components": [
            {
              "internalType": "address",
              "name": "erc721Address",
              "type": "address"
            },
            {
              "internalType": "address",
              "name": "dtV4Address",
              "type": "address"
            },
            {
              "internalType": "string",
              "name": "nftName",
              "type": "string"
            },
            {
              "internalType": "string",
              "name": "nftSymbol",
              "type": "string"
            },
            {
              "internalType": "string",
              "name": "tokenURI",
              "type": "string"
            },
            {
              "internalType": "string",
              "name": "erc20Name",
              "type": "string"
            },
            {
              "internalType": "string",
              "name": "erc20Symbol",
              "type": "string"
            }
          ],
          "internalType": "struct V4Migration.TokensDetails",
          "name": "",
          "type": "tuple"
        }
      ],
      "stateMutability": "view",
      "type": "function"
    },
    {
      "inputs": [
        {
          "internalType": "address",
          "name": "poolAddress",
          "type": "address"
        },
        {
          "internalType": "uint256[]",
          "name": "minAmountsOut",
          "type": "uint256[]"
        }
      ],
      "name": "liquidateAndCreatePool",
      "outputs": [],
      "stateMutability": "nonpayable",
      "type": "function"
    },
    {
      "inputs": [],
      "name": "oceanAddress",
      "outputs": [
        {
          "internalType": "address",
          "name": "",
          "type": "address"
        }
      ],
      "stateMutability": "view",
      "type": "function"
    },
    {
      "inputs": [
        {
          "internalType": "address",
          "name": "operator",
          "type": "address"
        },
        {
          "internalType": "address",
          "name": "from",
          "type": "address"
        },
        {
          "internalType": "uint256",
          "name": "tokenId",
          "type": "uint256"
        },
        {
          "internalType": "bytes",
          "name": "data",
          "type": "bytes"
        }
      ],
      "name": "onERC721Received",
      "outputs": [
        {
          "internalType": "bytes4",
          "name": "",
          "type": "bytes4"
        }
      ],
      "stateMutability": "pure",
      "type": "function"
    },
    {
      "inputs": [],
      "name": "owner",
      "outputs": [
        {
          "internalType": "address",
          "name": "",
          "type": "address"
        }
      ],
      "stateMutability": "view",
      "type": "function"
    },
    {
      "inputs": [],
      "name": "poolTemplate",
      "outputs": [
        {
          "internalType": "address",
          "name": "",
          "type": "address"
        }
      ],
      "stateMutability": "view",
      "type": "function"
    },
    {
      "inputs": [
        {
          "internalType": "address",
          "name": "_poolAddress",
          "type": "address"
        },
        {
          "internalType": "uint256",
          "name": "noOfShares",
          "type": "uint256"
        }
      ],
      "name": "removeShares",
      "outputs": [],
      "stateMutability": "nonpayable",
      "type": "function"
    },
    {
      "inputs": [],
      "name": "renounceOwnership",
      "outputs": [],
      "stateMutability": "nonpayable",
      "type": "function"
    },
    {
      "inputs": [
        {
          "internalType": "address",
          "name": "poolAddress",
          "type": "address"
        },
        {
          "internalType": "uint8",
          "name": "_metaDataState",
          "type": "uint8"
        },
        {
          "internalType": "string[]",
          "name": "_metaDataDecryptorUrlAndAddress",
          "type": "string[]"
        },
        {
          "internalType": "bytes",
          "name": "_flags",
          "type": "bytes"
        },
        {
          "internalType": "bytes",
          "name": "_data",
          "type": "bytes"
        },
        {
          "internalType": "bytes32",
          "name": "_metaDataHash",
          "type": "bytes32"
        },
        {
          "internalType": "string",
          "name": "_didV4",
          "type": "string"
        },
        {
          "components": [
            {
              "internalType": "address",
              "name": "validatorAddress",
              "type": "address"
            },
            {
              "internalType": "uint8",
              "name": "v",
              "type": "uint8"
            },
            {
              "internalType": "bytes32",
              "name": "r",
              "type": "bytes32"
            },
            {
              "internalType": "bytes32",
              "name": "s",
              "type": "bytes32"
            }
          ],
          "internalType": "struct IERC721Template.metaDataProof[]",
          "name": "_metadataProofs",
          "type": "tuple[]"
        }
      ],
      "name": "setMetadataAndTransferNFT",
      "outputs": [],
      "stateMutability": "nonpayable",
      "type": "function"
    },
    {
      "inputs": [],
      "name": "staking",
      "outputs": [
        {
          "internalType": "address",
          "name": "",
          "type": "address"
        }
      ],
      "stateMutability": "view",
      "type": "function"
    },
    {
      "inputs": [
        {
          "internalType": "address",
          "name": "_dtAddress",
          "type": "address"
        },
        {
          "internalType": "address",
          "name": "_poolAddress",
          "type": "address"
        },
        {
          "internalType": "string",
          "name": "_didV3",
          "type": "string"
        },
        {
          "internalType": "string",
          "name": "_tokenURI",
          "type": "string"
        },
        {
          "internalType": "string[2]",
          "name": "_nftNameAndSymbol",
          "type": "string[2]"
        },
        {
          "internalType": "string[2]",
          "name": "_erc20NameAndSymbol",
          "type": "string[2]"
        }
      ],
      "name": "startMigration",
      "outputs": [],
      "stateMutability": "nonpayable",
      "type": "function"
    },
    {
      "inputs": [
        {
          "internalType": "address",
          "name": "poolAddress",
          "type": "address"
        }
      ],
      "name": "thresholdMet",
      "outputs": [
        {
          "internalType": "bool",
          "name": "",
          "type": "bool"
        }
      ],
      "stateMutability": "view",
      "type": "function"
    },
    {
      "inputs": [
        {
          "internalType": "address",
          "name": "newOwner",
          "type": "address"
        }
      ],
      "name": "transferOwnership",
      "outputs": [],
      "stateMutability": "nonpayable",
      "type": "function"
    }
  ],
  "bytecode": "0x6080604052670de0b6b3a764000060065560646007553480156200002257600080fd5b50604051620051f5380380620051f583398101604081905262000045916200029b565b62000050336200022e565b600180556001600160a01b038416620000bc5760405162461bcd60e51b8152602060048201526024808201527f466163746f727920416464726573732063616e6e6f74206265206164647265736044820152637328302960e01b60648201526084015b60405180910390fd5b6001600160a01b0383166200011f5760405162461bcd60e51b815260206004820152602260248201527f4f6365616e20416464726573732063616e6e6f74206265206164647265737328604482015261302960f01b6064820152608401620000b3565b6001600160a01b038216620001825760405162461bcd60e51b815260206004820152602260248201527f506f6f6c2074656d706c6174652063616e6e6f74206265206164647265737328604482015261302960f01b6064820152608401620000b3565b6001600160a01b038116620001da5760405162461bcd60e51b815260206004820152601c60248201527f5374616b696e672063616e6e6f742062652061646472657373283029000000006044820152606401620000b3565b600280546001600160a01b039586166001600160a01b0319918216179091556003805494861694821694909417909355600480549285169284169290921790915560058054919093169116179055620002f8565b600080546001600160a01b038381166001600160a01b0319831681178455604051919092169283917f8be0079c531659141344cd1fd0a4f28419497f9722a3daafe3b4186f6b6457e09190a35050565b80516001600160a01b03811681146200029657600080fd5b919050565b60008060008060808587031215620002b257600080fd5b620002bd856200027e565b9350620002cd602086016200027e565b9250620002dd604086016200027e565b9150620002ed606086016200027e565b905092959194509250565b614eed80620003086000396000f3fe608060405234801561001057600080fd5b50600436106101215760003560e01c8063715018a6116100ad578063beffbb8911610071578063beffbb89146102b5578063c5cc1f67146102c8578063d6e9b122146102df578063ea0098ca146102f2578063f2fde38b1461030557600080fd5b8063715018a6146102535780638475e4a11461025b5780638da5cb5b1461027e578063933bb12c1461028f578063a2e18294146102a257600080fd5b80633a4af333116100f45780633a4af333146101c3578063419a70c1146101d65780634a0e8637146101f65780634cf088d91461022d5780636f022ac41461024057600080fd5b80630e81073c14610126578063150b7a021461013b57806315d9d2f9146101785780633570de7d14610198575b600080fd5b610139610134366004613ff6565b610318565b005b61015a61014936600461406a565b630a85bd0160e11b95945050505050565b6040516001600160e01b031990911681526020015b60405180910390f35b61018b6101863660046140dc565b6105d2565b60405161016f91906141cd565b6004546101ab906001600160a01b031681565b6040516001600160a01b03909116815260200161016f565b6101396101d1366004614481565b6108ba565b6101e96101e43660046140dc565b610c54565b60405161016f91906145b2565b61020961020436600461467b565b610fc5565b6040805182518152602080840151908201529181015115159082015260600161016f565b6005546101ab906001600160a01b031681565b61013961024e3660046140dc565b61103f565b6101396115df565b61026e6102693660046140dc565b611645565b604051901515815260200161016f565b6000546001600160a01b03166101ab565b61013961029d3660046146b4565b611769565b6002546101ab906001600160a01b031681565b6101396102c3366004613ff6565b61265b565b6102d160075481565b60405190815260200161016f565b6101396102ed366004614853565b612ba0565b6003546101ab906001600160a01b031681565b6101396103133660046140dc565b613069565b600260015414156103445760405162461bcd60e51b815260040161033b9061491f565b60405180910390fd5b60026001556001600160a01b03821660009081526008602052604090205460ff166003811115610376576103766140f9565b6001146103d45760405162461bcd60e51b815260206004820152602660248201527f416464696e6720736861726573206973206e6f742063757272656e746c7920616044820152651b1b1bddd95960d21b606482015260840161033b565b6001600160a01b0382166000908152600860205260409020600b015443106104495760405162461bcd60e51b815260206004820152602260248201527f446561646c696e65207265616368656420666f7220616464696e672073686172604482015261657360f01b606482015260840161033b565b6040516323b872dd60e01b8152336004820152306024820152604481018290526001600160a01b038316906323b872dd906064016020604051808303816000875af115801561049c573d6000803e3d6000fd5b505050506040513d601f19601f820116820180604052508101906104c09190614956565b6105085760405162461bcd60e51b81526020600482015260196024820152784661696c656420746f207472616e736665722073686172657360381b604482015260640161033b565b6001600160a01b0382166000908152600a602090815260408083203384529091529020546105369082613134565b6001600160a01b0383166000908152600a6020908152604080832033845290915290209081556002015460ff166105ca576001600160a01b0382166000818152600a6020908152604080832033808552908352818420600201805460ff1916600190811790915594845260088352908320600501805494850181558352912090910180546001600160a01b03191690911790555b505060018055565b610662604080516101a08101909152806000815260200160006001600160a01b0316815260200160006001600160a01b03168152602001606081526020016060815260200160006001600160a01b031681526020016060815260200160006001600160a01b0316815260200160008152602001600081526020016000815260200160008152602001600081525090565b6001600160a01b0382166000908152600860205260409081902081516101a081019092528054829060ff16600381111561069e5761069e6140f9565b60038111156106af576106af6140f9565b815281546001600160a01b036101009091048116602083015260018301541660408201526002820180546060909201916106e890614978565b80601f016020809104026020016040519081016040528092919081815260200182805461071490614978565b80156107615780601f1061073657610100808354040283529160200191610761565b820191906000526020600020905b81548152906001019060200180831161074457829003601f168201915b5050505050815260200160038201805461077a90614978565b80601f01602080910402602001604051908101604052809291908181526020018280546107a690614978565b80156107f35780601f106107c8576101008083540402835291602001916107f3565b820191906000526020600020905b8154815290600101906020018083116107d657829003601f168201915b505050918352505060048201546001600160a01b0316602080830191909152600583018054604080518285028101850182528281529401939283018282801561086557602002820191906000526020600020905b81546001600160a01b03168152600190910190602001808311610847575b505050918352505060068201546001600160a01b03166020820152600782015460408201526008820154606082015260098201546080820152600a82015460a0820152600b9091015460c09091015292915050565b600260015414156108dd5760405162461bcd60e51b815260040161033b9061491f565b600260018190556001600160a01b038d1660009081526008602052604090205460ff166003811115610911576109116140f9565b1461095e5760405162461bcd60e51b815260206004820152601b60248201527f4d6967726174696f6e206e6f7420636f6d706c65746564207965740000000000604482015260640161033b565b6001600160a01b038c81166000908152600860205260409020600401541633146109bf5760405162461bcd60e51b815260206004820152601260248201527127b7363c903b19903837b7b61037bbb732b960711b604482015260640161033b565b6001600160a01b03808d1660009081526009602052604081205490911690631aa3adf9908d908d908d90816109f6576109f66149b3565b9050602002810190610a0891906149c9565b8e8e6001818110610a1b57610a1b6149b3565b9050602002810190610a2d91906149c9565b8e8e8e8e8e8c6040518c63ffffffff1660e01b8152600401610a599b9a99989796959493929190614a38565b600060405180830381600087803b158015610a7357600080fd5b505af1158015610a87573d6000803e3d6000fd5b5050506001600160a01b03808e1660009081526009602090815260409182902054825163d8053ad360e01b815292519316935063d8053ad3926004808401938290030181865afa158015610adf573d6000803e3d6000fd5b505050506040513d601f19601f82011682018060405250810190610b039190614956565b610b425760405162461bcd60e51b815260206004820152601060248201526f13595d1859185d18481b9bdd081cd95d60821b604482015260640161033b565b6001600160a01b038c811660009081526009602052604090819020549051632142170760e11b8152306004820152336024820152600160448201529116906342842e0e90606401600060405180830381600087803b158015610ba357600080fd5b505af1158015610bb7573d6000803e3d6000fd5b5050506001600160a01b038d166000908152600860205260409020610be191506003018484613e17565b506001600160a01b038c1660009081526008602052604090819020805460ff1916600390811790915590517f162ecc7501c07263186694a5a0a65a3c3615c3dae3f2ec95a61d043d3322a3a591610c3a918f9190614b12565b60405180910390a150506001805550505050505050505050565b610ca66040518060e0016040528060006001600160a01b0316815260200160006001600160a01b0316815260200160608152602001606081526020016060815260200160608152602001606081525090565b6001600160a01b03808316600090815260096020908152604091829020825160e0810184528154851681526001820154909416918401919091526002810180549192840191610cf490614978565b80601f0160208091040260200160405190810160405280929190818152602001828054610d2090614978565b8015610d6d5780601f10610d4257610100808354040283529160200191610d6d565b820191906000526020600020905b815481529060010190602001808311610d5057829003601f168201915b50505050508152602001600382018054610d8690614978565b80601f0160208091040260200160405190810160405280929190818152602001828054610db290614978565b8015610dff5780601f10610dd457610100808354040283529160200191610dff565b820191906000526020600020905b815481529060010190602001808311610de257829003601f168201915b50505050508152602001600482018054610e1890614978565b80601f0160208091040260200160405190810160405280929190818152602001828054610e4490614978565b8015610e915780601f10610e6657610100808354040283529160200191610e91565b820191906000526020600020905b815481529060010190602001808311610e7457829003601f168201915b50505050508152602001600582018054610eaa90614978565b80601f0160208091040260200160405190810160405280929190818152602001828054610ed690614978565b8015610f235780601f10610ef857610100808354040283529160200191610f23565b820191906000526020600020905b815481529060010190602001808311610f0657829003601f168201915b50505050508152602001600682018054610f3c90614978565b80601f0160208091040260200160405190810160405280929190818152602001828054610f6890614978565b8015610fb55780601f10610f8a57610100808354040283529160200191610fb5565b820191906000526020600020905b815481529060010190602001808311610f9857829003601f168201915b5050505050815250509050919050565b610feb604051806060016040528060008152602001600081526020016000151581525090565b506001600160a01b039182166000908152600a602090815260408083209390941682529182528290208251606081018452815481526001820154928101929092526002015460ff1615159181019190915290565b600260015414156110625760405162461bcd60e51b815260040161033b9061491f565b60026001556000546001600160a01b031633148061109c57506001600160a01b038181166000908152600860205260409020600401541633145b6110de5760405162461bcd60e51b81526020600482015260136024820152722737ba1027a8231037b910222a1037bbb732b960691b604482015260640161033b565b60016001600160a01b03821660009081526008602052604090205460ff16600381111561110d5761110d6140f9565b146111745760405162461bcd60e51b815260206004820152603160248201527f43757272656e7420706f6f6c2073746174757320646f6573206e6f7420616c6c6044820152701bddc81d1bc818d85b98d95b08141bdbdb607a1b606482015260840161033b565b61117d81611645565b156111c25760405162461bcd60e51b8152602060048201526015602482015274151a1c995cda1bdb1908185b1c9958591e481b595d605a1b604482015260640161033b565b60005b6001600160a01b038216600090815260086020908152604091829020600501805483518184028101840190945280845261123c939283018282801561123357602002820191906000526020600020905b81546001600160a01b03168152600190910190602001808311611215575b50505050505190565b811015611475576001600160a01b0382166000908152600a602090815260408083206008909252822060050180548391908590811061127d5761127d6149b3565b60009182526020808320909101546001600160a01b0390811684528382019490945260409283018220549387168252600a8152828220600890915291812060050180549394509092839190869081106112d8576112d86149b3565b60009182526020808320909101546001600160a01b0390811684528382019490945260409283018220949094559186168252600a835280822060089093528120600501805491929183919086908110611333576113336149b3565b6000918252602080832091909101546001600160a01b0390811684528382019490945260409283018220600201805460ff19169515159590951790945591861680835260089093529020600501805463a9059cbb919085908110611399576113996149b3565b60009182526020909120015460405160e083901b6001600160e01b03191681526001600160a01b039091166004820152602481018490526044016020604051808303816000875af11580156113f2573d6000803e3d6000fd5b505050506040513d601f19601f820116820180604052508101906114169190614956565b6114625760405162461bcd60e51b815260206004820152601e60248201527f4661696c656420746f207472616e73666572206261636b207368617265730000604482015260640161033b565b508061146d81614b45565b9150506111c5565b506001600160a01b038116600090815260086020526040812080546001600160a81b03191681556001810180546001600160a01b0319169055906114bc6002830182613e9b565b6114ca600383016000613e9b565b6004820180546001600160a01b03191690556114ea600583016000613ed5565b506006810180546001600160a01b0319908116909155600060078301819055600883018190556009808401829055600a8401829055600b9093018190556001600160a01b0384168152602092909252604082208054821681556001810180549092169091559061155d6002830182613e9b565b61156b600383016000613e9b565b611579600483016000613e9b565b611587600583016000613e9b565b611595600683016000613e9b565b5050604080516001600160a01b03831681524360208201527f36ea5cd5608625e789af0282eecdb4eae1cb7c1cf6d0ec3f9a84f35be850260b910160405180910390a15060018055565b6000546001600160a01b031633146116395760405162461bcd60e51b815260206004820181905260248201527f4f776e61626c653a2063616c6c6572206973206e6f7420746865206f776e6572604482015260640161033b565b6116436000613147565b565b6040516370a0823160e01b815230600482015260009081906001600160a01b038416906370a0823190602401602060405180830381865afa15801561168e573d6000803e3d6000fd5b505050506040513d601f19601f820116820180604052508101906116b29190614b60565b9050806116c25750600092915050565b6000836001600160a01b03166318160ddd6040518163ffffffff1660e01b8152600401602060405180830381865afa158015611702573d6000803e3d6000fd5b505050506040513d601f19601f820116820180604052508101906117269190614b60565b9050671158e460913d00006117508361174a6006548561319790919063ffffffff16565b906131a3565b1161175f575060019392505050565b5060009392505050565b6002600154141561178c5760405162461bcd60e51b815260040161033b9061491f565b600260019081556001600160a01b03831660009081526008602052604090205460ff1660038111156117c0576117c06140f9565b1461182a5760405162461bcd60e51b815260206004820152603460248201527f43757272656e7420706f6f6c2073746174757320646f6573206e6f7420616c6c6044820152731bddc81d1bc81b1a5c5d5a59185d1948141bdbdb60621b606482015260840161033b565b6040516370a0823160e01b81523060048201526000906001600160a01b038416906370a0823190602401602060405180830381865afa158015611871573d6000803e3d6000fd5b505050506040513d601f19601f820116820180604052508101906118959190614b60565b90506118a083611645565b6118e05760405162461bcd60e51b8152602060048201526011602482015270151a1c995cda1bdb19081b9bdd081b595d607a1b604482015260640161033b565b6001600160a01b0383166000908152600860205260409020600b0154431161194a5760405162461bcd60e51b815260206004820181905260248201527f43616e6e6f742062652063616c6c6564206265666f726520646561646c696e65604482015260640161033b565b6001600160a01b03831660008181526008602052604090819020805460ff191660021790555163b02f0b7360e01b815263b02f0b73906119909084908690600401614ba9565b600060405180830381600087803b1580156119aa57600080fd5b505af11580156119be573d6000803e3d6000fd5b50506040516370a0823160e01b81523060048201526001600160a01b03861692506370a082319150602401602060405180830381865afa158015611a06573d6000803e3d6000fd5b505050506040513d601f19601f82011682018060405250810190611a2a9190614b60565b15611a6f5760405162461bcd60e51b81526020600482015260156024820152744661696c656420746f2072656465656d204c50547360581b604482015260640161033b565b6001600160a01b03838116600090815260086020526040908190206006015490516370a0823160e01b81523060048201529116906370a0823190602401602060405180830381865afa158015611ac9573d6000803e3d6000fd5b505050506040513d601f19601f82011682018060405250810190611aed9190614b60565b6001600160a01b03848116600090815260086020819052604091829020019290925560035491516370a0823160e01b81523060048201529116906370a0823190602401602060405180830381865afa158015611b4d573d6000803e3d6000fd5b505050506040513d601f19601f82011682018060405250810190611b719190614b60565b6001600160a01b0384811660009081526008602081905260409182902060078101949094556006840154930154905163a9059cbb60e01b815260016004820152602481019190915291169063a9059cbb906044016020604051808303816000875af1158015611be4573d6000803e3d6000fd5b505050506040513d601f19601f82011682018060405250810190611c089190614956565b611c4c5760405162461bcd60e51b81526020600482015260156024820152744661696c656420746f206275726e2076332044547360581b604482015260640161033b565b6002546001600160a01b03848116600090815260086020526040902060070154600354611c7e939083169216906131af565b600254600090819081906001600160a01b0316631b434bc7611c9f88613289565b611ca8896134e3565b6001600160a01b038a1660009081526008602081905260409091200154611cd0908b90613832565b6040518463ffffffff1660e01b8152600401611cee93929190614c5f565b6060604051808303816000875af1158015611d0d573d6000803e3d6000fd5b505050506040513d601f19601f82011682018060405250810190611d319190614d9c565b919450925090506001600160a01b038316611d855760405162461bcd60e51b815260206004820152601460248201527311985a5b1959081d1bc818dc99585d194813919560621b604482015260640161033b565b6001600160a01b038216611ddb5760405162461bcd60e51b815260206004820152601a60248201527f4661696c656420746f206372656174652064617461746f6b656e000000000000604482015260640161033b565b6001600160a01b038116611e295760405162461bcd60e51b815260206004820152601560248201527411985a5b1959081d1bc818dc99585d1948141bdbdb605a1b604482015260640161033b565b6040516370a0823160e01b81523060048201526001600160a01b038216906370a0823190602401602060405180830381865afa158015611e6d573d6000803e3d6000fd5b505050506040513d601f19601f82011682018060405250810190611e919190614b60565b6001600160a01b038781166000908152600860209081526040808320600980820196909655600190810180546001600160a01b03199081168988161790915595909252822080548516888516178155018054909316918516919091179091555b6001600160a01b0387166000908152600860209081526040918290206005018054835181840281018401909452808452611f669392830182828015611233576020028201919060005260206000209081546001600160a01b031681526001909101906020018083116112155750505050505190565b8110156121c2576001600160a01b0387166000908152600a60209081526040808320600890925282206005018054611fef92899261174a9286919088908110611fb157611fb16149b3565b60009182526020808320909101546001600160a01b039081168452838201949094526040928301822054938f16825260089052206009015490613197565b6001600160a01b0389166000908152600a602090815260408083206008909252822060050180549394509192909183918690811061202f5761202f6149b3565b60009182526020808320909101546001600160a01b039081168452838201949094526040928301822094909455918b168252600a8352808220600890935281206005018054849392919086908110612089576120896149b3565b60009182526020808320909101546001600160a01b0390811684528382019490945260409283018220600101949094558b83168152600890935290912060050180549185169163a9059cbb9190859081106120e6576120e66149b3565b60009182526020909120015460405160e083901b6001600160e01b03191681526001600160a01b039091166004820152602481018490526044016020604051808303816000875af115801561213f573d6000803e3d6000fd5b505050506040513d601f19601f820116820180604052508101906121639190614956565b6121af5760405162461bcd60e51b815260206004820152601760248201527f4661696c656420746f207472616e73666572204c505473000000000000000000604482015260640161033b565b50806121ba81614b45565b915050611ef1565b506003546040516370a0823160e01b81523060048201526001600160a01b03909116906370a0823190602401602060405180830381865afa15801561220b573d6000803e3d6000fd5b505050506040513d601f19601f8201168201806040525081019061222f9190614b60565b156122945760405162461bcd60e51b815260206004820152602f60248201527f4661696c656420746f2063726561746520706f6f6c2c2077726f6e67204f434560448201526e10538818985b185b98d9481b19599d608a1b606482015260840161033b565b6001600160a01b03868116600090815260086020526040908190206006015490516370a0823160e01b81523060048201529116906370a0823190602401602060405180830381865afa1580156122ee573d6000803e3d6000fd5b505050506040513d601f19601f820116820180604052508101906123129190614b60565b156123785760405162461bcd60e51b815260206004820152603060248201527f4661696c656420746f2063726561746520706f6f6c2c2077726f6e672076332060448201526f11151cc818985b185b98d9481b19599d60821b606482015260840161033b565b6040516370a0823160e01b815230600482015261240a906001600160a01b038316906370a0823190602401602060405180830381865afa1580156123c0573d6000803e3d6000fd5b505050506040513d601f19601f820116820180604052508101906123e49190614b60565b60405180604001604052806008815260200167131415081b19599d60c21b815250613b0d565b6040516370a0823160e01b81523060048201526000906001600160a01b038316906370a0823190602401602060405180830381865afa158015612451573d6000803e3d6000fd5b505050506040513d601f19601f820116820180604052508101906124759190614b60565b6001600160a01b03881660009081526008602090815260409182902060050180548351818402810184019094528084529394506124f6936124f19392830182828015611233576020028201919060005260206000209081546001600160a01b031681526001909101906020018083116112155750505050505190565b613b56565b6001600160a01b038716600090815260086020908152604091829020600501805483518184028101840190945280845261256b9392830182828015611233576020028201919060005260206000209081546001600160a01b031681526001909101906020018083116112155750505050505190565b8111156125d45760405162461bcd60e51b815260206004820152603160248201527f4661696c656420746f2063726561746520706f6f6c2c2077726f6e67206e6577604482015270081314150818985b185b98d9481b19599d607a1b606482015260840161033b565b6001600160a01b03878116600090815260086020908152604091829020600a810185905560060154825188851681528785169281019290925285841682840152909216606083015260808201839052517f203f7d57eb5f8e8bb4db1dabba576f6c3b74c39b49ef43ba3cc2a1e78a91054d9181900360a00190a15050600180555050505050565b6002600154141561267e5760405162461bcd60e51b815260040161033b9061491f565b60026001556001600160a01b03821660009081526008602052604090205460ff1660038111156126b0576126b06140f9565b6001146127185760405162461bcd60e51b815260206004820152603060248201527f43757272656e7420706f6f6c2073746174757320646f6573206e6f7420616c6c60448201526f1bddc81cda185c99481c995b5bdd985b60821b606482015260840161033b565b6001600160a01b0382166000908152600860205260409020600b0154431061278e5760405162461bcd60e51b8152602060048201526024808201527f446561646c696e65207265616368656420666f722072656d6f76696e672073686044820152636172657360e01b606482015260840161033b565b6001600160a01b0382166000908152600a602090815260408083203384529091529020548111156128185760405162461bcd60e51b815260206004820152602e60248201527f5573657220646f6573206e6f7420686176652073756666696369656e7420736860448201526d061726573206c6f636b65642075760941b606482015260840161033b565b6001600160a01b0382166000908152600a602090815260408083203384529091528120546128469083613b9b565b6001600160a01b0384166000818152600a6020908152604080832033808552925291829020849055905163a9059cbb60e01b81526004810191909152602481018590529192509063a9059cbb906044016020604051808303816000875af11580156128b5573d6000803e3d6000fd5b505050506040513d601f19601f820116820180604052508101906128d99190614956565b6129215760405162461bcd60e51b81526020600482015260196024820152784661696c656420746f207472616e736665722073686172657360381b604482015260640161033b565b6001600160a01b0383166000908152600a60209081526040808320338452909152902054612b97576001600160a01b0383166000908152600a602090815260408083203384529091528120600201805460ff191690555b6001600160a01b03841660009081526008602090815260409182902060050180548351818402810184019094528084526129ed9392830182828015611233576020028201919060005260206000209081546001600160a01b031681526001909101906020018083116112155750505050505190565b811015612b95576001600160a01b0384166000908152600860205260409020600501805433919083908110612a2457612a246149b3565b6000918252602090912001546001600160a01b03161415612b83576001600160a01b03841660009081526008602090815260409182902060050180548351818402810184019094528084529092600192612aba928591830182828015611233576020028201919060005260206000209081546001600160a01b031681526001909101906020018083116112155750505050505190565b612ac49190614de9565b81548110612ad457612ad46149b3565b60009182526020808320909101546001600160a01b03878116845260089092526040909220600501805491909216919083908110612b1457612b146149b3565b600091825260208083209190910180546001600160a01b0319166001600160a01b039485161790559186168152600890915260409020600501805480612b5c57612b5c614e00565b600082815260209020810160001990810180546001600160a01b0319169055019055612b95565b80612b8d81614b45565b915050612978565b505b50506001805550565b60026001541415612bc35760405162461bcd60e51b815260040161033b9061491f565b60026001556040516355138f0d60e11b81523360048201526000906001600160a01b0388169063aa271e1a90602401602060405180830381865afa158015612c0f573d6000803e3d6000fd5b505050506040513d601f19601f82011682018060405250810190612c339190614956565b9050600181151514612c955760405162461bcd60e51b815260206004820152602560248201527f43616c6c6572206973206e6f74207468652064617461746f6b656e207075626c60448201526434b9b432b960d91b606482015260840161033b565b6001600160a01b03861660009081526008602052604090205460ff166003811115612cc257612cc26140f9565b15612d225760405162461bcd60e51b815260206004820152602a60248201527f4d6967726174696f6e2070726f636573732068617320616c7265616479206265604482015269195b881cdd185c9d195960b21b606482015260840161033b565b604080516101a081018252600181526001600160a01b0388166020808301919091526000828401819052606083018990528351808301855281815260808401523360a0840152835181815291820190935260c08201908152602001896001600160a01b0316815260200160008152602001600081526020016000815260200160008152602001612dbd6007544361313490919063ffffffff16565b90526040805160e08101825260008082526020808301829052885183850152888101516060840152608083018a9052875160a08401528781015160c08401526001600160a01b038c1682526008905291909120825181549394509192849290829060ff19166001836003811115612e3657612e366140f9565b02179055506020828101518254610100600160a81b0319166101006001600160a01b039283160217835560408401516001840180546001600160a01b0319169190921617905560608301518051612e939260028501920190613ef3565b5060808201518051612eaf916003840191602090910190613ef3565b5060a08201516004820180546001600160a01b0319166001600160a01b0390921691909117905560c08201518051612ef1916005840191602090910190613f67565b5060e08201516006820180546001600160a01b03199081166001600160a01b039384161790915561010084015160078401556101208401516008840155610140840151600980850191909155610160850151600a85015561018090940151600b909301929092558a811660009081526020938452604090819020855181548516908416178155858501516001820180549095169316929092179092559083015180518493612fa6926002850192910190613ef3565b5060608201518051612fc2916003840191602090910190613ef3565b5060808201518051612fde916004840191602090910190613ef3565b5060a08201518051612ffa916005840191602090910190613ef3565b5060c08201518051613016916006840191602090910190613ef3565b5050604080516001600160a01b038b1681524360208201527fec650fcc375710553756d538ba0b333d528957ad95af9ec6d1a23481441dfd2292500160405180910390a150506001805550505050505050565b6000546001600160a01b031633146130c35760405162461bcd60e51b815260206004820181905260248201527f4f776e61626c653a2063616c6c6572206973206e6f7420746865206f776e6572604482015260640161033b565b6001600160a01b0381166131285760405162461bcd60e51b815260206004820152602660248201527f4f776e61626c653a206e6577206f776e657220697320746865207a65726f206160448201526564647265737360d01b606482015260840161033b565b61313181613147565b50565b60006131408284614e16565b9392505050565b600080546001600160a01b038381166001600160a01b0319831681178455604051919092169283917f8be0079c531659141344cd1fd0a4f28419497f9722a3daafe3b4186f6b6457e09190a35050565b60006131408284614e2e565b60006131408284614e4d565b604051636eb1769f60e11b81523060048201526001600160a01b038381166024830152600091839186169063dd62ed3e90604401602060405180830381865afa158015613200573d6000803e3d6000fd5b505050506040513d601f19601f820116820180604052508101906132249190614b60565b61322e9190614e16565b604080516001600160a01b038616602482015260448082018490528251808303909101815260649091019091526020810180516001600160e01b031663095ea7b360e01b179052909150613283908590613ba7565b50505050565b6132b46040518060800160405280606081526020016060815260200160008152602001606081525090565b604080516080810182526001600160a01b0384166000908152600960205291822060020180548291906132e690614978565b80601f016020809104026020016040519081016040528092919081815260200182805461331290614978565b801561335f5780601f106133345761010080835404028352916020019161335f565b820191906000526020600020905b81548152906001019060200180831161334257829003601f168201915b5050505050815260200160096000866001600160a01b03166001600160a01b03168152602001908152602001600020600301805461339c90614978565b80601f01602080910402602001604051908101604052809291908181526020018280546133c890614978565b80156134155780601f106133ea57610100808354040283529160200191613415565b820191906000526020600020905b8154815290600101906020018083116133f857829003601f168201915b505050505081526020016001815260200160096000866001600160a01b03166001600160a01b03168152602001908152602001600020600401805461345990614978565b80601f016020809104026020016040519081016040528092919081815260200182805461348590614978565b80156134d25780601f106134a7576101008083540402835291602001916134d2565b820191906000526020600020905b8154815290600101906020018083116134b557829003601f168201915b505050919092525090949350505050565b6135156040518060a0016040528060008152602001606081526020016060815260200160608152602001606081525090565b60408051600280825260608201909252600091816020015b606081526020019060019003908161352d5750506001600160a01b038416600090815260096020526040902060050180549192509061356b90614978565b80601f016020809104026020016040519081016040528092919081815260200182805461359790614978565b80156135e45780601f106135b9576101008083540402835291602001916135e4565b820191906000526020600020905b8154815290600101906020018083116135c757829003601f168201915b5050505050816000815181106135fc576135fc6149b3565b602002602001018190525060096000846001600160a01b03166001600160a01b03168152602001908152602001600020600601805461363a90614978565b80601f016020809104026020016040519081016040528092919081815260200182805461366690614978565b80156136b35780601f10613688576101008083540402835291602001916136b3565b820191906000526020600020905b81548152906001019060200180831161369657829003601f168201915b5050505050816001815181106136cb576136cb6149b3565b602090810291909101015260408051600480825260a08201909252600091816020016020820280368337019050509050308160008151811061370f5761370f6149b3565b6001600160a01b03928316602091820292909201810191909152858216600090815260089091526040902060040154825191169082906001908110613756576137566149b3565b6001600160a01b03929092166020928302919091018201526040805160028082526060820183526000939192909183019080368337019050509050600019816000815181106137a7576137a76149b3565b60200260200101818152505060006040518060a001604052806001815260200185815260200184815260200183815260200160006001600160401b038111156137f2576137f261433d565b60405190808252806020026020018201604052801561382557816020015b60608152602001906001900390816138105790505b5090529695505050505050565b61385660405180606001604052806060815260200160608152602001606081525090565b60408051600580825260c082019092526000916020820160a080368337019050509050828160008151811061388d5761388d6149b3565b6020026020010181815250506012816001815181106138ae576138ae6149b3565b60200260200101818152505062250491816003815181106138d1576138d16149b3565b60200260200101818152505060086000856001600160a01b03166001600160a01b031681526020019081526020016000206007015481600481518110613919576139196149b3565b602090810291909101015260408051600280825260608201909252600091816020016020820280368337019050509050660aa87bee53800081600081518110613964576139646149b3565b60200260200101818152505066038d7ea4c680008160018151811061398b5761398b6149b3565b602090810291909101015260408051600680825260e08201909252600091816020016020820280368337505060055482519293506001600160a01b0316918391506000906139db576139db6149b3565b6001600160a01b039283166020918202929092010152600354825191169082906001908110613a0c57613a0c6149b3565b6001600160a01b0392831660209182029290920101526002805483519216918391908110613a3c57613a3c6149b3565b60200260200101906001600160a01b031690816001600160a01b0316815250503081600381518110613a7057613a706149b3565b60200260200101906001600160a01b031690816001600160a01b031681525050600081600481518110613aa557613aa56149b3565b6001600160a01b039283166020918202929092010152600454825191169082906005908110613ad657613ad66149b3565b6001600160a01b03909216602092830291909101820152604080516060810182529485529084019290925290820152905092915050565b613b528282604051602401613b23929190614e6f565b60408051601f198184030181529190526020810180516001600160e01b0316630fa3f34560e01b179052613c7e565b5050565b61313181604051602401613b6c91815260200190565b60408051601f198184030181529190526020810180516001600160e01b031663f5b1bba960e01b179052613c7e565b60006131408284614de9565b6000613bfc826040518060400160405280602081526020017f5361666545524332303a206c6f772d6c6576656c2063616c6c206661696c6564815250856001600160a01b0316613c9f9092919063ffffffff16565b805190915015613c795780806020019051810190613c1a9190614956565b613c795760405162461bcd60e51b815260206004820152602a60248201527f5361666545524332303a204552433230206f7065726174696f6e20646964206e6044820152691bdd081cdd58d8d9595960b21b606482015260840161033b565b505050565b80516a636f6e736f6c652e6c6f67602083016000808483855afa5050505050565b6060613cae8484600085613cb6565b949350505050565b606082471015613d175760405162461bcd60e51b815260206004820152602660248201527f416464726573733a20696e73756666696369656e742062616c616e636520666f6044820152651c8818d85b1b60d21b606482015260840161033b565b843b613d655760405162461bcd60e51b815260206004820152601d60248201527f416464726573733a2063616c6c20746f206e6f6e2d636f6e7472616374000000604482015260640161033b565b600080866001600160a01b03168587604051613d819190614e88565b60006040518083038185875af1925050503d8060008114613dbe576040519150601f19603f3d011682016040523d82523d6000602084013e613dc3565b606091505b5091509150613dd3828286613dde565b979650505050505050565b60608315613ded575081613140565b825115613dfd5782518084602001fd5b8160405162461bcd60e51b815260040161033b9190614ea4565b828054613e2390614978565b90600052602060002090601f016020900481019282613e455760008555613e8b565b82601f10613e5e5782800160ff19823516178555613e8b565b82800160010185558215613e8b579182015b82811115613e8b578235825591602001919060010190613e70565b50613e97929150613fbc565b5090565b508054613ea790614978565b6000825580601f10613eb7575050565b601f0160209004906000526020600020908101906131319190613fbc565b50805460008255906000526020600020908101906131319190613fbc565b828054613eff90614978565b90600052602060002090601f016020900481019282613f215760008555613e8b565b82601f10613f3a57805160ff1916838001178555613e8b565b82800160010185558215613e8b579182015b82811115613e8b578251825591602001919060010190613f4c565b828054828255906000526020600020908101928215613e8b579160200282015b82811115613e8b57825182546001600160a01b0319166001600160a01b03909116178255602090920191600190910190613f87565b5b80821115613e975760008155600101613fbd565b6001600160a01b038116811461313157600080fd5b8035613ff181613fd1565b919050565b6000806040838503121561400957600080fd5b823561401481613fd1565b946020939093013593505050565b60008083601f84011261403457600080fd5b5081356001600160401b0381111561404b57600080fd5b60208301915083602082850101111561406357600080fd5b9250929050565b60008060008060006080868803121561408257600080fd5b853561408d81613fd1565b9450602086013561409d81613fd1565b93506040860135925060608601356001600160401b038111156140bf57600080fd5b6140cb88828901614022565b969995985093965092949392505050565b6000602082840312156140ee57600080fd5b813561314081613fd1565b634e487b7160e01b600052602160045260246000fd5b6004811061412d57634e487b7160e01b600052602160045260246000fd5b9052565b60005b8381101561414c578181015183820152602001614134565b838111156132835750506000910152565b60008151808452614175816020860160208601614131565b601f01601f19169290920160200192915050565b600081518084526020808501945080840160005b838110156141c25781516001600160a01b03168752958201959082019060010161419d565b509495945050505050565b602081526141df60208201835161410f565b600060208301516141fb60408401826001600160a01b03169052565b5060408301516001600160a01b03811660608401525060608301516101a080608085015261422d6101c085018361415d565b91506080850151601f19808685030160a087015261424b848361415d565b935060a0870151915061426960c08701836001600160a01b03169052565b60c08701519150808685030160e0870152506142858382614189565b92505060e08501516101006142a4818701836001600160a01b03169052565b860151610120868101919091528601516101408087019190915286015161016080870191909152860151610180808701919091529095015193019290925250919050565b803560ff81168114613ff157600080fd5b60008083601f84011261430b57600080fd5b5081356001600160401b0381111561432257600080fd5b6020830191508360208260051b850101111561406357600080fd5b634e487b7160e01b600052604160045260246000fd5b604051608081016001600160401b03811182821017156143755761437561433d565b60405290565b604051601f8201601f191681016001600160401b03811182821017156143a3576143a361433d565b604052919050565b60006001600160401b038211156143c4576143c461433d565b5060051b60200190565b600082601f8301126143df57600080fd5b813560206143f46143ef836143ab565b61437b565b82815260079290921b8401810191818101908684111561441357600080fd5b8286015b8481101561447657608081890312156144305760008081fd5b614438614353565b813561444381613fd1565b81526144508286016142e8565b818601526040828101359082015260608083013590820152835291830191608001614417565b509695505050505050565b6000806000806000806000806000806000806101008d8f0312156144a457600080fd5b6144ad8d613fe6565b9b506144bb60208e016142e8565b9a506001600160401b0360408e013511156144d557600080fd5b6144e58e60408f01358f016142f9565b909a5098506001600160401b0360608e0135111561450257600080fd5b6145128e60608f01358f01614022565b90985096506001600160401b0360808e0135111561452f57600080fd5b61453f8e60808f01358f01614022565b909650945060a08d013593506001600160401b0360c08e0135111561456357600080fd5b6145738e60c08f01358f01614022565b90935091506001600160401b0360e08e0135111561459057600080fd5b6145a08e60e08f01358f016143ce565b90509295989b509295989b509295989b565b602080825282516001600160a01b0316828201528201516000906145e160408401826001600160a01b03169052565b50604083015160e060608401526145fc61010084018261415d565b90506060840151601f198085840301608086015261461a838361415d565b925060808601519150808584030160a0860152614637838361415d565b925060a08601519150808584030160c0860152614654838361415d565b925060c08601519150808584030160e086015250614672828261415d565b95945050505050565b6000806040838503121561468e57600080fd5b823561469981613fd1565b915060208301356146a981613fd1565b809150509250929050565b600080604083850312156146c757600080fd5b82356146d281613fd1565b91506020838101356001600160401b038111156146ee57600080fd5b8401601f810186136146ff57600080fd5b803561470d6143ef826143ab565b81815260059190911b8201830190838101908883111561472c57600080fd5b928401925b8284101561474a57833582529284019290840190614731565b80955050505050509250929050565b600082601f83011261476a57600080fd5b81356001600160401b038111156147835761478361433d565b614796601f8201601f191660200161437b565b8181528460208386010111156147ab57600080fd5b816020850160208301376000918101602001919091529392505050565b600082601f8301126147d957600080fd5b604051604081016001600160401b0382821081831117156147fc576147fc61433d565b6040918252829185018681111561481257600080fd5b855b818110156148475780358381111561482c5760008081fd5b61483889828a01614759565b85525060209384019301614814565b50929695505050505050565b60008060008060008060c0878903121561486c57600080fd5b61487587613fe6565b955061488360208801613fe6565b945060408701356001600160401b038082111561489f57600080fd5b6148ab8a838b01614759565b955060608901359150808211156148c157600080fd5b6148cd8a838b01614759565b945060808901359150808211156148e357600080fd5b6148ef8a838b016147c8565b935060a089013591508082111561490557600080fd5b5061491289828a016147c8565b9150509295509295509295565b6020808252601f908201527f5265656e7472616e637947756172643a207265656e7472616e742063616c6c00604082015260600190565b60006020828403121561496857600080fd5b8151801515811461314057600080fd5b600181811c9082168061498c57607f821691505b602082108114156149ad57634e487b7160e01b600052602260045260246000fd5b50919050565b634e487b7160e01b600052603260045260246000fd5b6000808335601e198436030181126149e057600080fd5b8301803591506001600160401b038211156149fa57600080fd5b60200191503681900382131561406357600080fd5b81835281816020850137506000828201602090810191909152601f909101601f19169091010190565b60ff8c1681526000602060e081840152614a5660e084018d8f614a0f565b604084820381860152614a6a828d8f614a0f565b9150606085830381870152614a80838c8e614a0f565b9250608086840381880152614a96848b8d614a0f565b60a088018a905287810360c08901528851808252868a0195509086019060005b81811015614af757865180516001600160a01b031684528881015160ff16898501528681015187850152850151858401529587019591830191600101614ab6565b50508096505050505050509c9b505050505050505050505050565b6001600160a01b038316815260408101613140602083018461410f565b634e487b7160e01b600052601160045260246000fd5b6000600019821415614b5957614b59614b2f565b5060010190565b600060208284031215614b7257600080fd5b5051919050565b600081518084526020808501945080840160005b838110156141c257815187529582019590820190600101614b8d565b828152604060208201526000613cae6040830184614b79565b600081518084526020808501808196508360051b8101915082860160005b85811015614c0a578284038952614bf884835161415d565b98850198935090840190600101614be0565b5091979650505050505050565b6000815160608452614c2c6060850182614b79565b905060208301518482036020860152614c458282614b79565b915050604083015184820360408601526146728282614189565b606081526000845160806060840152614c7b60e084018261415d565b9050602080870151605f1980868503016080870152614c9a848361415d565b9350604089015160a087015260608901519150808685030160c087015250614cc2838261415d565b9250508382038185015260a08201865183528187015160a08385015281815180845260c08601915060c08160051b8701019350848301925060005b81811015614d2b5760bf19878603018352614d1985855161415d565b94509285019291850191600101614cfd565b50505050604087015191508281036040840152614d488183614189565b91505060608601518282036060840152614d628282614b79565b91505060808601518282036080840152614d7c8282614bc2565b925050508281036040840152614d928185614c17565b9695505050505050565b600080600060608486031215614db157600080fd5b8351614dbc81613fd1565b6020850151909350614dcd81613fd1565b6040850151909250614dde81613fd1565b809150509250925092565b600082821015614dfb57614dfb614b2f565b500390565b634e487b7160e01b600052603160045260246000fd5b60008219821115614e2957614e29614b2f565b500190565b6000816000190483118215151615614e4857614e48614b2f565b500290565b600082614e6a57634e487b7160e01b600052601260045260246000fd5b500490565b828152604060208201526000613cae604083018461415d565b60008251614e9a818460208701614131565b9190910192915050565b602081526000613140602083018461415d56fea26469706673582212201750002fa056a9641313c28bde390e99abb2232a1152b9aa8c598a9fe8acf96764736f6c634300080a0033",
  "linkReferences": {},
  "deployedLinkReferences": {}
}