{
  "_format": "hh-sol-artifact-1",
  "contractName": "V4Migration",
  "sourceName": "contracts/v4migration/V4Migration.sol",
  "abi": [
    {
      "inputs": [
        {
          "internalType": "address",
          "name": "_ERC721FactoryAddress",
          "type": "address"
        },
        {
          "internalType": "address",
          "name": "_oceanAddress",
          "type": "address"
        },
        {
          "internalType": "address",
          "name": "_poolTemplate",
          "type": "address"
        },
        {
          "internalType": "address",
          "name": "_daemon",
          "type": "address"
        }
      ],
      "stateMutability": "nonpayable",
      "type": "constructor"
    },
    {
      "anonymous": false,
      "inputs": [
        {
          "indexed": false,
          "internalType": "address",
          "name": "poolAddress",
          "type": "address"
        },
        {
          "indexed": false,
          "internalType": "uint256",
          "name": "date",
          "type": "uint256"
        }
      ],
      "name": "Cancelled",
      "type": "event"
    },
    {
      "anonymous": false,
      "inputs": [
        {
          "indexed": false,
          "internalType": "address",
          "name": "poolAddress",
          "type": "address"
        },
        {
          "indexed": false,
          "internalType": "enum V4Migration.migrationStatus",
          "name": "status",
          "type": "uint8"
        }
      ],
      "name": "Completed",
      "type": "event"
    },
    {
      "anonymous": false,
      "inputs": [
        {
          "indexed": false,
          "internalType": "address",
          "name": "nftAddress",
          "type": "address"
        },
        {
          "indexed": false,
          "internalType": "address",
          "name": "newDTAddress",
          "type": "address"
        },
        {
          "indexed": false,
          "internalType": "address",
          "name": "newPool",
          "type": "address"
        },
        {
          "indexed": false,
          "internalType": "address",
          "name": "v3DTAddress",
          "type": "address"
        },
        {
          "indexed": false,
          "internalType": "uint256",
          "name": "lptRounding",
          "type": "uint256"
        }
      ],
      "name": "NewPool",
      "type": "event"
    },
    {
      "anonymous": false,
      "inputs": [
        {
          "indexed": true,
          "internalType": "address",
          "name": "previousOwner",
          "type": "address"
        },
        {
          "indexed": true,
          "internalType": "address",
          "name": "newOwner",
          "type": "address"
        }
      ],
      "name": "OwnershipTransferred",
      "type": "event"
    },
    {
      "anonymous": false,
      "inputs": [
        {
          "indexed": false,
          "internalType": "address",
          "name": "poolAddress",
          "type": "address"
        },
        {
          "indexed": false,
          "internalType": "uint256",
          "name": "date",
          "type": "uint256"
        }
      ],
      "name": "Started",
      "type": "event"
    },
    {
      "inputs": [],
      "name": "ERC721FactoryAddress",
      "outputs": [
        {
          "internalType": "address",
          "name": "",
          "type": "address"
        }
      ],
      "stateMutability": "view",
      "type": "function"
    },
    {
      "inputs": [
        {
          "internalType": "address",
          "name": "_staking",
          "type": "address"
        }
      ],
      "name": "addMigrationStaking",
      "outputs": [],
      "stateMutability": "nonpayable",
      "type": "function"
    },
    {
      "inputs": [
        {
          "internalType": "address",
          "name": "_poolAddress",
          "type": "address"
        },
        {
          "internalType": "uint256",
          "name": "noOfShares",
          "type": "uint256"
        }
      ],
      "name": "addShares",
      "outputs": [],
      "stateMutability": "nonpayable",
      "type": "function"
    },
    {
      "inputs": [],
      "name": "blocksWindow",
      "outputs": [
        {
          "internalType": "uint256",
          "name": "",
          "type": "uint256"
        }
      ],
      "stateMutability": "view",
      "type": "function"
    },
    {
      "inputs": [
        {
          "internalType": "address",
          "name": "poolAddress",
          "type": "address"
        }
      ],
      "name": "cancelMigration",
      "outputs": [],
      "stateMutability": "nonpayable",
      "type": "function"
    },
    {
      "inputs": [],
      "name": "daemon",
      "outputs": [
        {
          "internalType": "address",
          "name": "",
          "type": "address"
        }
      ],
      "stateMutability": "view",
      "type": "function"
    },
    {
      "inputs": [
        {
          "internalType": "address",
          "name": "v3poolAddress",
          "type": "address"
        }
      ],
      "name": "getPoolStatus",
      "outputs": [
        {
          "components": [
            {
              "internalType": "enum V4Migration.migrationStatus",
              "name": "status",
              "type": "uint8"
            },
            {
              "internalType": "address",
              "name": "poolV3Address",
              "type": "address"
            },
            {
              "internalType": "address",
              "name": "poolV4Address",
              "type": "address"
            },
            {
              "internalType": "string",
              "name": "didV3",
              "type": "string"
            },
            {
              "internalType": "string",
              "name": "didV4",
              "type": "string"
            },
            {
              "internalType": "address",
              "name": "owner",
              "type": "address"
            },
            {
              "internalType": "address[]",
              "name": "poolShareOwners",
              "type": "address[]"
            },
            {
              "internalType": "address",
              "name": "dtV3Address",
              "type": "address"
            },
            {
              "internalType": "uint256",
              "name": "totalOcean",
              "type": "uint256"
            },
            {
              "internalType": "uint256",
              "name": "totalDTBurnt",
              "type": "uint256"
            },
            {
              "internalType": "uint256",
              "name": "newLPTAmount",
              "type": "uint256"
            },
            {
              "internalType": "uint256",
              "name": "lptRounding",
              "type": "uint256"
            },
            {
              "internalType": "uint256",
              "name": "deadline",
              "type": "uint256"
            }
          ],
          "internalType": "struct V4Migration.PoolStatus",
          "name": "",
          "type": "tuple"
        }
      ],
      "stateMutability": "view",
      "type": "function"
    },
    {
      "inputs": [
        {
          "internalType": "address",
          "name": "poolAddress",
          "type": "address"
        },
        {
          "internalType": "address",
          "name": "userAddress",
          "type": "address"
        }
      ],
      "name": "getShareAllocation",
      "outputs": [
        {
          "components": [
            {
              "internalType": "uint256",
              "name": "userV3Shares",
              "type": "uint256"
            },
            {
              "internalType": "uint256",
              "name": "userV4Shares",
              "type": "uint256"
            },
            {
              "internalType": "bool",
              "name": "alreadyAdded",
              "type": "bool"
            }
          ],
          "internalType": "struct V4Migration.shareAllocation",
          "name": "",
          "type": "tuple"
        }
      ],
      "stateMutability": "view",
      "type": "function"
    },
    {
      "inputs": [
        {
          "internalType": "address",
          "name": "v3poolAddress",
          "type": "address"
        }
      ],
      "name": "getTokensDetails",
      "outputs": [
        {
          "components": [
            {
              "internalType": "address",
              "name": "erc721Address",
              "type": "address"
            },
            {
              "internalType": "address",
              "name": "dtV4Address",
              "type": "address"
            },
            {
              "internalType": "string",
              "name": "nftName",
              "type": "string"
            },
            {
              "internalType": "string",
              "name": "nftSymbol",
              "type": "string"
            },
            {
              "internalType": "string",
              "name": "tokenURI",
              "type": "string"
            },
            {
              "internalType": "string",
              "name": "erc20Name",
              "type": "string"
            },
            {
              "internalType": "string",
              "name": "erc20Symbol",
              "type": "string"
            }
          ],
          "internalType": "struct V4Migration.TokensDetails",
          "name": "",
          "type": "tuple"
        }
      ],
      "stateMutability": "view",
      "type": "function"
    },
    {
      "inputs": [
        {
          "internalType": "address",
          "name": "poolAddress",
          "type": "address"
        },
        {
          "internalType": "uint256[]",
          "name": "minAmountsOut",
          "type": "uint256[]"
        }
      ],
      "name": "liquidateAndCreatePool",
      "outputs": [],
      "stateMutability": "nonpayable",
      "type": "function"
    },
    {
      "inputs": [],
      "name": "oceanAddress",
      "outputs": [
        {
          "internalType": "address",
          "name": "",
          "type": "address"
        }
      ],
      "stateMutability": "view",
      "type": "function"
    },
    {
      "inputs": [
        {
          "internalType": "address",
          "name": "operator",
          "type": "address"
        },
        {
          "internalType": "address",
          "name": "from",
          "type": "address"
        },
        {
          "internalType": "uint256",
          "name": "tokenId",
          "type": "uint256"
        },
        {
          "internalType": "bytes",
          "name": "data",
          "type": "bytes"
        }
      ],
      "name": "onERC721Received",
      "outputs": [
        {
          "internalType": "bytes4",
          "name": "",
          "type": "bytes4"
        }
      ],
      "stateMutability": "pure",
      "type": "function"
    },
    {
      "inputs": [],
      "name": "owner",
      "outputs": [
        {
          "internalType": "address",
          "name": "",
          "type": "address"
        }
      ],
      "stateMutability": "view",
      "type": "function"
    },
    {
      "inputs": [],
      "name": "poolTemplate",
      "outputs": [
        {
          "internalType": "address",
          "name": "",
          "type": "address"
        }
      ],
      "stateMutability": "view",
      "type": "function"
    },
    {
      "inputs": [
        {
          "internalType": "address",
          "name": "_poolAddress",
          "type": "address"
        },
        {
          "internalType": "uint256",
          "name": "noOfShares",
          "type": "uint256"
        }
      ],
      "name": "removeShares",
      "outputs": [],
      "stateMutability": "nonpayable",
      "type": "function"
    },
    {
      "inputs": [],
      "name": "renounceOwnership",
      "outputs": [],
      "stateMutability": "nonpayable",
      "type": "function"
    },
    {
      "inputs": [
        {
          "internalType": "address",
          "name": "poolAddress",
          "type": "address"
        },
        {
          "internalType": "uint8",
          "name": "_metaDataState",
          "type": "uint8"
        },
        {
          "internalType": "string[]",
          "name": "_metaDataDecryptorUrlAndAddress",
          "type": "string[]"
        },
        {
          "internalType": "bytes[]",
          "name": "bytess",
          "type": "bytes[]"
        },
        {
          "internalType": "bytes",
          "name": "_metaDataHash",
          "type": "bytes"
        },
        {
          "internalType": "string",
          "name": "_didV4",
          "type": "string"
        }
      ],
      "name": "setMetadataAndTransferNFT",
      "outputs": [],
      "stateMutability": "nonpayable",
      "type": "function"
    },
    {
      "inputs": [],
      "name": "staking",
      "outputs": [
        {
          "internalType": "address",
          "name": "",
          "type": "address"
        }
      ],
      "stateMutability": "view",
      "type": "function"
    },
    {
      "inputs": [
        {
          "internalType": "address",
          "name": "_dtAddress",
          "type": "address"
        },
        {
          "internalType": "address",
          "name": "_poolAddress",
          "type": "address"
        },
        {
          "internalType": "string",
          "name": "_didV3",
          "type": "string"
        },
        {
          "internalType": "string",
          "name": "_tokenURI",
          "type": "string"
        },
        {
          "internalType": "string[2]",
          "name": "_nftNameAndSymbol",
          "type": "string[2]"
        },
        {
          "internalType": "string[2]",
          "name": "_erc20NameAndSymbol",
          "type": "string[2]"
        }
      ],
      "name": "startMigration",
      "outputs": [],
      "stateMutability": "nonpayable",
      "type": "function"
    },
    {
      "inputs": [
        {
          "internalType": "address",
          "name": "poolAddress",
          "type": "address"
        }
      ],
      "name": "thresholdMet",
      "outputs": [
        {
          "internalType": "bool",
          "name": "",
          "type": "bool"
        }
      ],
      "stateMutability": "view",
      "type": "function"
    },
    {
      "inputs": [
        {
          "internalType": "address",
          "name": "newOwner",
          "type": "address"
        }
      ],
      "name": "transferOwnership",
      "outputs": [],
      "stateMutability": "nonpayable",
      "type": "function"
    }
  ],
  "bytecode": "0x6080604052670de0b6b3a764000060065560646007553480156200002257600080fd5b5060405162004a3238038062004a32833981016040819052620000459162000111565b6200005033620000a4565b600180546001600160a01b039586166001600160a01b03199182161790915560028054948616948216949094179093556003805492851692841692909217909155600580549190931691161790556200016e565b600080546001600160a01b038381166001600160a01b0319831681178455604051919092169283917f8be0079c531659141344cd1fd0a4f28419497f9722a3daafe3b4186f6b6457e09190a35050565b80516001600160a01b03811681146200010c57600080fd5b919050565b600080600080608085870312156200012857600080fd5b6200013385620000f4565b93506200014360208601620000f4565b92506200015360408601620000f4565b91506200016360608601620000f4565b905092959194509250565b6148b4806200017e6000396000f3fe608060405234801561001057600080fd5b50600436106101375760003560e01c8063715018a6116100b8578063beffbb891161007c578063beffbb89146102de578063c5cc1f67146102f1578063d6e9b12214610308578063e159e80a1461031b578063ea0098ca1461032e578063f2fde38b1461034157600080fd5b8063715018a61461027c5780638475e4a1146102845780638da5cb5b146102a7578063933bb12c146102b8578063a2e18294146102cb57600080fd5b80633570de7d116100ff5780633570de7d146101ec578063419a70c1146101ff5780634a0e86371461021f5780634cf088d9146102565780636f022ac41461026957600080fd5b80630e81073c1461013c578063150b7a021461015157806315d9d2f91461018e5780632439d9d0146101ae578063268519c0146101c1575b600080fd5b61014f61014a366004613f9a565b610354565b005b61017061015f366004613e65565b630a85bd0160e11b95945050505050565b6040516001600160e01b031990911681526020015b60405180910390f35b6101a161019c366004613cf5565b6105ed565b6040516101859190614427565b61014f6101bc366004613cf5565b6108d5565b6005546101d4906001600160a01b031681565b6040516001600160a01b039091168152602001610185565b6003546101d4906001600160a01b031681565b61021261020d366004613cf5565b610921565b6040516101859190614542565b61023261022d366004613d12565b610c92565b60408051825181526020808401519082015291810151151590820152606001610185565b6004546101d4906001600160a01b031681565b61014f610277366004613cf5565b610d0c565b61014f611245565b610297610292366004613cf5565b61127b565b6040519015158152602001610185565b6000546001600160a01b03166101d4565b61014f6102c6366004613ed8565b6113de565b6001546101d4906001600160a01b031681565b61014f6102ec366004613f9a565b612242565b6102fa60075481565b604051908152602001610185565b61014f610316366004613d98565b61276a565b61014f610329366004613fc6565b612c16565b6002546101d4906001600160a01b031681565b61014f61034f366004613cf5565b612f11565b6001600160a01b03821660009081526008602052604090205460ff16600381111561038157610381614811565b6001146103e45760405162461bcd60e51b815260206004820152602660248201527f416464696e6720736861726573206973206e6f742063757272656e746c7920616044820152651b1b1bddd95960d21b60648201526084015b60405180910390fd5b6001600160a01b0382166000908152600860205260409020600b015443106104595760405162461bcd60e51b815260206004820152602260248201527f446561646c696e65207265616368656420666f7220616464696e672073686172604482015261657360f01b60648201526084016103db565b6040516323b872dd60e01b8152336004820152306024820152604481018290526001600160a01b038316906323b872dd90606401602060405180830381600087803b1580156104a757600080fd5b505af11580156104bb573d6000803e3d6000fd5b505050506040513d601f19601f820116820180604052508101906104df91906140ae565b6105275760405162461bcd60e51b81526020600482015260196024820152784661696c656420746f207472616e736665722073686172657360381b60448201526064016103db565b6001600160a01b0382166000908152600a602090815260408083203384529091529020546105559082612fac565b6001600160a01b0383166000908152600a6020908152604080832033845290915290209081556002015460ff166105e9576001600160a01b0382166000818152600a6020908152604080832033808552908352818420600201805460ff1916600190811790915594845260088352908320600501805494850181558352912090910180546001600160a01b03191690911790555b5050565b61067d604080516101a08101909152806000815260200160006001600160a01b0316815260200160006001600160a01b03168152602001606081526020016060815260200160006001600160a01b031681526020016060815260200160006001600160a01b0316815260200160008152602001600081526020016000815260200160008152602001600081525090565b6001600160a01b0382166000908152600860205260409081902081516101a081019092528054829060ff1660038111156106b9576106b9614811565b60038111156106ca576106ca614811565b815281546001600160a01b03610100909104811660208301526001830154166040820152600282018054606090920191610703906147a5565b80601f016020809104026020016040519081016040528092919081815260200182805461072f906147a5565b801561077c5780601f106107515761010080835404028352916020019161077c565b820191906000526020600020905b81548152906001019060200180831161075f57829003601f168201915b50505050508152602001600382018054610795906147a5565b80601f01602080910402602001604051908101604052809291908181526020018280546107c1906147a5565b801561080e5780601f106107e35761010080835404028352916020019161080e565b820191906000526020600020905b8154815290600101906020018083116107f157829003601f168201915b505050918352505060048201546001600160a01b0316602080830191909152600583018054604080518285028101850182528281529401939283018282801561088057602002820191906000526020600020905b81546001600160a01b03168152600190910190602001808311610862575b505050918352505060068201546001600160a01b03166020820152600782015460408201526008820154606082015260098201546080820152600a82015460a0820152600b9091015460c09091015292915050565b6000546001600160a01b031633146108ff5760405162461bcd60e51b81526004016103db906142b5565b600480546001600160a01b0319166001600160a01b0392909216919091179055565b6109736040518060e0016040528060006001600160a01b0316815260200160006001600160a01b0316815260200160608152602001606081526020016060815260200160608152602001606081525090565b6001600160a01b03808316600090815260096020908152604091829020825160e08101845281548516815260018201549094169184019190915260028101805491928401916109c1906147a5565b80601f01602080910402602001604051908101604052809291908181526020018280546109ed906147a5565b8015610a3a5780601f10610a0f57610100808354040283529160200191610a3a565b820191906000526020600020905b815481529060010190602001808311610a1d57829003601f168201915b50505050508152602001600382018054610a53906147a5565b80601f0160208091040260200160405190810160405280929190818152602001828054610a7f906147a5565b8015610acc5780601f10610aa157610100808354040283529160200191610acc565b820191906000526020600020905b815481529060010190602001808311610aaf57829003601f168201915b50505050508152602001600482018054610ae5906147a5565b80601f0160208091040260200160405190810160405280929190818152602001828054610b11906147a5565b8015610b5e5780601f10610b3357610100808354040283529160200191610b5e565b820191906000526020600020905b815481529060010190602001808311610b4157829003601f168201915b50505050508152602001600582018054610b77906147a5565b80601f0160208091040260200160405190810160405280929190818152602001828054610ba3906147a5565b8015610bf05780601f10610bc557610100808354040283529160200191610bf0565b820191906000526020600020905b815481529060010190602001808311610bd357829003601f168201915b50505050508152602001600682018054610c09906147a5565b80601f0160208091040260200160405190810160405280929190818152602001828054610c35906147a5565b8015610c825780601f10610c5757610100808354040283529160200191610c82565b820191906000526020600020905b815481529060010190602001808311610c6557829003601f168201915b5050505050815250509050919050565b610cb8604051806060016040528060008152602001600081526020016000151581525090565b506001600160a01b039182166000908152600a602090815260408083209390941682529182528290208251606081018452815481526001820154928101929092526002015460ff1615159181019190915290565b6000546001600160a01b0316331480610d4157506001600160a01b038181166000908152600860205260409020600401541633145b610d835760405162461bcd60e51b81526020600482015260136024820152722737ba1027a8231037b910222a1037bbb732b960691b60448201526064016103db565b60016001600160a01b03821660009081526008602052604090205460ff166003811115610db257610db2614811565b14610e195760405162461bcd60e51b815260206004820152603160248201527f43757272656e7420706f6f6c2073746174757320646f6573206e6f7420616c6c6044820152701bddc81d1bc818d85b98d95b08141bdbdb607a1b60648201526084016103db565b610e228161127b565b15610e675760405162461bcd60e51b8152602060048201526015602482015274151a1c995cda1bdb1908185b1c9958591e481b595d605a1b60448201526064016103db565b60005b6001600160a01b0382166000908152600860209081526040918290206005018054835181840281018401909452808452610ee19392830182828015610ed857602002820191906000526020600020905b81546001600160a01b03168152600190910190602001808311610eba575b50505050505190565b8110156110df576001600160a01b0382166000908152600a6020908152604080832060089092528220600501805483919085908110610f2257610f2261483d565b60009182526020808320909101546001600160a01b0390811684528382019490945260409283018220549387168252600a815282822060089091529181206005018054939450909283919086908110610f7d57610f7d61483d565b60009182526020808320909101546001600160a01b0390811684528382019490945260409283018220949094559186168252600a835280822060089093528120600501805491929183919086908110610fd857610fd861483d565b6000918252602080832091909101546001600160a01b0390811684528382019490945260409283018220600201805460ff19169515159590951790945591861680835260089093529020600501805463a9059cbb91908590811061103e5761103e61483d565b60009182526020909120015460405160e083901b6001600160e01b03191681526001600160a01b03909116600482015260248101849052604401602060405180830381600087803b15801561109257600080fd5b505af11580156110a6573d6000803e3d6000fd5b505050506040513d601f19601f820116820180604052508101906110ca91906140ae565b505080806110d7906147e0565b915050610e6a565b506001600160a01b038116600090815260086020526040812080546001600160a81b03191681556001810180546001600160a01b0319169055906111266002830182613985565b611134600383016000613985565b6004820180546001600160a01b03191690556111546005830160006139bf565b506006810180546001600160a01b0319908116909155600060078301819055600883018190556009808401829055600a8401829055600b9093018190556001600160a01b038416815260209290925260408220805482168155600181018054909216909155906111c76002830182613985565b6111d5600383016000613985565b6111e3600483016000613985565b6111f1600583016000613985565b6111ff600683016000613985565b5050604080516001600160a01b03831681524360208201527f36ea5cd5608625e789af0282eecdb4eae1cb7c1cf6d0ec3f9a84f35be850260b910160405180910390a150565b6000546001600160a01b0316331461126f5760405162461bcd60e51b81526004016103db906142b5565b6112796000612fbf565b565b6040516370a0823160e01b815230600482015260009081906001600160a01b038416906370a082319060240160206040518083038186803b1580156112bf57600080fd5b505afa1580156112d3573d6000803e3d6000fd5b505050506040513d601f19601f820116820180604052508101906112f791906140d0565b9050806113075750600092915050565b6000836001600160a01b03166318160ddd6040518163ffffffff1660e01b815260040160206040518083038186803b15801561134257600080fd5b505afa158015611356573d6000803e3d6000fd5b505050506040513d601f19601f8201168201806040525081019061137a91906140d0565b90506113a361139e836113986006548561300f90919063ffffffff16565b9061301b565b613027565b671158e460913d00006113c5836113986006548561300f90919063ffffffff16565b116113d4575060019392505050565b5060009392505050565b60016001600160a01b03831660009081526008602052604090205460ff16600381111561140d5761140d614811565b146114775760405162461bcd60e51b815260206004820152603460248201527f43757272656e7420706f6f6c2073746174757320646f6573206e6f7420616c6c6044820152731bddc81d1bc81b1a5c5d5a59185d1948141bdbdb60621b60648201526084016103db565b6040516370a0823160e01b81523060048201526000906001600160a01b038416906370a082319060240160206040518083038186803b1580156114b957600080fd5b505afa1580156114cd573d6000803e3d6000fd5b505050506040513d601f19601f820116820180604052508101906114f191906140d0565b90506114fc8361127b565b61153c5760405162461bcd60e51b8152602060048201526011602482015270151a1c995cda1bdb19081b9bdd081b595d607a1b60448201526064016103db565b6001600160a01b0383166000908152600860205260409020600b015443116115a65760405162461bcd60e51b815260206004820181905260248201527f43616e6e6f742062652063616c6c6564206265666f726520646561646c696e6560448201526064016103db565b6001600160a01b03831660008181526008602052604090819020805460ff191660021790555163b02f0b7360e01b815263b02f0b73906115ec9084908690600401614602565b600060405180830381600087803b15801561160657600080fd5b505af115801561161a573d6000803e3d6000fd5b50506040516370a0823160e01b81523060048201526001600160a01b03861692506370a08231915060240160206040518083038186803b15801561165d57600080fd5b505afa158015611671573d6000803e3d6000fd5b505050506040513d601f19601f8201168201806040525081019061169591906140d0565b156116da5760405162461bcd60e51b81526020600482015260156024820152744661696c656420746f2072656465656d204c50547360581b60448201526064016103db565b6001600160a01b03838116600090815260086020526040908190206006015490516370a0823160e01b81523060048201529116906370a082319060240160206040518083038186803b15801561172f57600080fd5b505afa158015611743573d6000803e3d6000fd5b505050506040513d601f19601f8201168201806040525081019061176791906140d0565b6001600160a01b03848116600090815260086020819052604091829020019290925560025491516370a0823160e01b81523060048201529116906370a082319060240160206040518083038186803b1580156117c257600080fd5b505afa1580156117d6573d6000803e3d6000fd5b505050506040513d601f19601f820116820180604052508101906117fa91906140d0565b6001600160a01b0384811660009081526008602081905260409182902060078101949094556006840154930154905163a9059cbb60e01b815260016004820152602481019190915291169063a9059cbb90604401602060405180830381600087803b15801561186857600080fd5b505af115801561187c573d6000803e3d6000fd5b505050506040513d601f19601f820116820180604052508101906118a091906140ae565b506002546001546001600160a01b038581166000908152600860205260409081902060070154905163095ea7b360e01b8152928216600484015260248301529091169063095ea7b390604401602060405180830381600087803b15801561190657600080fd5b505af115801561191a573d6000803e3d6000fd5b505050506040513d601f19601f8201168201806040525081019061193e91906140ae565b50600154600090819081906001600160a01b031663b3440f8c6119608861306c565b611969896132c6565b6001600160a01b038a1660009081526008602081905260409091200154611991908b90613637565b6040518463ffffffff1660e01b81526004016119af939291906142ea565b606060405180830381600087803b1580156119c957600080fd5b505af11580156119dd573d6000803e3d6000fd5b505050506040513d601f19601f82011682018060405250810190611a019190613d4b565b6040516370a0823160e01b815230600482015292955090935091506001600160a01b038216906370a082319060240160206040518083038186803b158015611a4857600080fd5b505afa158015611a5c573d6000803e3d6000fd5b505050506040513d601f19601f82011682018060405250810190611a8091906140d0565b6001600160a01b038781166000908152600860209081526040808320600980820196909655600190810180546001600160a01b03199081168988161790915595909252822080548516888516178155018054909316918516919091179091555b6001600160a01b0387166000908152600860209081526040918290206005018054835181840281018401909452808452611b559392830182828015610ed8576020028201919060005260206000209081546001600160a01b03168152600190910190602001808311610eba5750505050505190565b811015611d76576001600160a01b0387166000908152600a60209081526040808320600890925282206005018054611bde9289926113989286919088908110611ba057611ba061483d565b60009182526020808320909101546001600160a01b039081168452838201949094526040928301822054938f1682526008905220600901549061300f565b6001600160a01b0389166000908152600a6020908152604080832060089092528220600501805493945091929091839186908110611c1e57611c1e61483d565b60009182526020808320909101546001600160a01b039081168452838201949094526040928301822094909455918b168252600a8352808220600890935281206005018054849392919086908110611c7857611c7861483d565b60009182526020808320909101546001600160a01b0390811684528382019490945260409283018220600101949094558b83168152600890935290912060050180549185169163a9059cbb919085908110611cd557611cd561483d565b60009182526020909120015460405160e083901b6001600160e01b03191681526001600160a01b03909116600482015260248101849052604401602060405180830381600087803b158015611d2957600080fd5b505af1158015611d3d573d6000803e3d6000fd5b505050506040513d601f19601f82011682018060405250810190611d6191906140ae565b50508080611d6e906147e0565b915050611ae0565b506002546040516370a0823160e01b81523060048201526001600160a01b03909116906370a082319060240160206040518083038186803b158015611dba57600080fd5b505afa158015611dce573d6000803e3d6000fd5b505050506040513d601f19601f82011682018060405250810190611df291906140d0565b15611e575760405162461bcd60e51b815260206004820152602f60248201527f4661696c656420746f2063726561746520706f6f6c2c2077726f6e67204f434560448201526e10538818985b185b98d9481b19599d608a1b60648201526084016103db565b6001600160a01b03868116600090815260086020526040908190206006015490516370a0823160e01b81523060048201529116906370a082319060240160206040518083038186803b158015611eac57600080fd5b505afa158015611ec0573d6000803e3d6000fd5b505050506040513d601f19601f82011682018060405250810190611ee491906140d0565b15611f4a5760405162461bcd60e51b815260206004820152603060248201527f4661696c656420746f2063726561746520706f6f6c2c2077726f6e672076332060448201526f11151cc818985b185b98d9481b19599d60821b60648201526084016103db565b6040516370a0823160e01b8152306004820152611feb906001600160a01b038316906370a082319060240160206040518083038186803b158015611f8d57600080fd5b505afa158015611fa1573d6000803e3d6000fd5b505050506040513d601f19601f82011682018060405250810190611fc591906140d0565b60405180604001604052806008815260200167131415081b19599d60c21b815250613913565b6040516370a0823160e01b81523060048201526000906001600160a01b038316906370a082319060240160206040518083038186803b15801561202d57600080fd5b505afa158015612041573d6000803e3d6000fd5b505050506040513d601f19601f8201168201806040525081019061206591906140d0565b6001600160a01b03881660009081526008602090815260409182902060050180548351818402810184019094528084529394506120e19361139e9392830182828015610ed8576020028201919060005260206000209081546001600160a01b03168152600190910190602001808311610eba5750505050505190565b6001600160a01b03871660009081526008602090815260409182902060050180548351818402810184019094528084526121569392830182828015610ed8576020028201919060005260206000209081546001600160a01b03168152600190910190602001808311610eba5750505050505190565b8111156121bf5760405162461bcd60e51b815260206004820152603160248201527f4661696c656420746f2063726561746520706f6f6c2c2077726f6e67206e6577604482015270081314150818985b185b98d9481b19599d607a1b60648201526084016103db565b6001600160a01b03878116600090815260086020908152604091829020600a810185905560060154825188851681528785169281019290925285841682840152909216606083015260808201839052517f203f7d57eb5f8e8bb4db1dabba576f6c3b74c39b49ef43ba3cc2a1e78a91054d9181900360a00190a150505050505050565b6001600160a01b03821660009081526008602052604090205460ff16600381111561226f5761226f614811565b6001146122d75760405162461bcd60e51b815260206004820152603060248201527f43757272656e7420706f6f6c2073746174757320646f6573206e6f7420616c6c60448201526f1bddc81cda185c99481c995b5bdd985b60821b60648201526084016103db565b6001600160a01b0382166000908152600860205260409020600b0154431061234d5760405162461bcd60e51b8152602060048201526024808201527f446561646c696e65207265616368656420666f722072656d6f76696e672073686044820152636172657360e01b60648201526084016103db565b6001600160a01b0382166000908152600a602090815260408083203384529091529020548111156123d75760405162461bcd60e51b815260206004820152602e60248201527f5573657220646f6573206e6f7420686176652073756666696369656e7420736860448201526d061726573206c6f636b65642075760941b60648201526084016103db565b6001600160a01b0382166000908152600a602090815260408083203384529091528120546124059083613958565b6001600160a01b0384166000818152600a6020908152604080832033808552925291829020849055905163a9059cbb60e01b81526004810191909152602481018590529192509063a9059cbb90604401602060405180830381600087803b15801561246f57600080fd5b505af1158015612483573d6000803e3d6000fd5b505050506040513d601f19601f820116820180604052508101906124a791906140ae565b6124ef5760405162461bcd60e51b81526020600482015260196024820152784661696c656420746f207472616e736665722073686172657360381b60448201526064016103db565b6001600160a01b0383166000908152600a60209081526040808320338452909152902054612765576001600160a01b0383166000908152600a602090815260408083203384529091528120600201805460ff191690555b6001600160a01b03841660009081526008602090815260409182902060050180548351818402810184019094528084526125bb9392830182828015610ed8576020028201919060005260206000209081546001600160a01b03168152600190910190602001808311610eba5750505050505190565b811015612763576001600160a01b03841660009081526008602052604090206005018054339190839081106125f2576125f261483d565b6000918252602090912001546001600160a01b03161415612751576001600160a01b03841660009081526008602090815260409182902060050180548351818402810184019094528084529092600192612688928591830182828015610ed8576020028201919060005260206000209081546001600160a01b03168152600190910190602001808311610eba5750505050505190565b612692919061478e565b815481106126a2576126a261483d565b60009182526020808320909101546001600160a01b038781168452600890925260409092206005018054919092169190839081106126e2576126e261483d565b600091825260208083209190910180546001600160a01b0319166001600160a01b03948516179055918616815260089091526040902060050180548061272a5761272a614827565b600082815260209020810160001990810180546001600160a01b0319169055019055612763565b8061275b816147e0565b915050612546565b505b505050565b6040516355138f0d60e11b81523360048201526000906001600160a01b0388169063aa271e1a9060240160206040518083038186803b1580156127ac57600080fd5b505afa1580156127c0573d6000803e3d6000fd5b505050506040513d601f19601f820116820180604052508101906127e491906140ae565b90506001811515146128465760405162461bcd60e51b815260206004820152602560248201527f43616c6c6572206973206e6f74207468652064617461746f6b656e207075626c60448201526434b9b432b960d91b60648201526084016103db565b6001600160a01b03861660009081526008602052604090205460ff16600381111561287357612873614811565b156128d35760405162461bcd60e51b815260206004820152602a60248201527f4d6967726174696f6e2070726f636573732068617320616c7265616479206265604482015269195b881cdd185c9d195960b21b60648201526084016103db565b604080516101a081018252600181526001600160a01b0388166020808301919091526000828401819052606083018990528351808301855281815260808401523360a0840152835181815291820190935260c08201908152602001896001600160a01b031681526020016000815260200160008152602001600081526020016000815260200161296e60075443612fac90919063ffffffff16565b90526040805160e08101825260008082526020808301829052885183850152888101516060840152608083018a9052875160a08401528781015160c08401526001600160a01b038c1682526008905291909120825181549394509192849290829060ff191660018360038111156129e7576129e7614811565b02179055506020828101518254610100600160a81b0319166101006001600160a01b039283160217835560408401516001840180546001600160a01b0319169190921617905560608301518051612a4492600285019201906139dd565b5060808201518051612a609160038401916020909101906139dd565b5060a08201516004820180546001600160a01b0319166001600160a01b0390921691909117905560c08201518051612aa2916005840191602090910190613a61565b5060e08201516006820180546001600160a01b03199081166001600160a01b039384161790915561010084015160078401556101208401516008840155610140840151600980850191909155610160850151600a85015561018090940151600b909301929092558a811660009081526020938452604090819020855181548516908416178155858501516001820180549095169316929092179092559083015180518493612b579260028501929101906139dd565b5060608201518051612b739160038401916020909101906139dd565b5060808201518051612b8f9160048401916020909101906139dd565b5060a08201518051612bab9160058401916020909101906139dd565b5060c08201518051612bc79160068401916020909101906139dd565b5050604080516001600160a01b038b1681524360208201527fec650fcc375710553756d538ba0b333d528957ad95af9ec6d1a23481441dfd2292500160405180910390a1505050505050505050565b6005546001600160a01b03163314612c625760405162461bcd60e51b815260206004820152600f60248201526e27a7262c9027a823102220a2a6a7a760891b60448201526064016103db565b60026001600160a01b038b1660009081526008602052604090205460ff166003811115612c9157612c91614811565b14612cde5760405162461bcd60e51b815260206004820152601b60248201527f4d6967726174696f6e206e6f7420636f6d706c6574656420796574000000000060448201526064016103db565b6001600160a01b03808b1660009081526009602052604081205490911690635d5dea24908b908b908b9081612d1557612d1561483d565b9050602002810190612d2791906146bd565b8c8c6001818110612d3a57612d3a61483d565b9050602002810190612d4c91906146bd565b8c8c6000818110612d5f57612d5f61483d565b9050602002810190612d7191906146bd565b8e8e6001818110612d8457612d8461483d565b9050602002810190612d9691906146bd565b8e8e6040518c63ffffffff1660e01b8152600401612dbe9b9a9998979695949392919061463c565b600060405180830381600087803b158015612dd857600080fd5b505af1158015612dec573d6000803e3d6000fd5b505050506001600160a01b038a81166000908152600960209081526040808320546008909252918290206004908101549251632142170760e11b81523091810191909152918316602483015260016044830152909116906342842e0e90606401600060405180830381600087803b158015612e6657600080fd5b505af1158015612e7a573d6000803e3d6000fd5b5050506001600160a01b038b166000908152600860205260409020612ea491506003018383613ab6565b506001600160a01b038a1660009081526008602052604090819020805460ff1916600390811790915590517f162ecc7501c07263186694a5a0a65a3c3615c3dae3f2ec95a61d043d3322a3a591612efd918d9190614298565b60405180910390a150505050505050505050565b6000546001600160a01b03163314612f3b5760405162461bcd60e51b81526004016103db906142b5565b6001600160a01b038116612fa05760405162461bcd60e51b815260206004820152602660248201527f4f776e61626c653a206e6577206f776e657220697320746865207a65726f206160448201526564647265737360d01b60648201526084016103db565b612fa981612fbf565b50565b6000612fb88284614735565b9392505050565b600080546001600160a01b038381166001600160a01b0319831681178455604051919092169283917f8be0079c531659141344cd1fd0a4f28419497f9722a3daafe3b4186f6b6457e09190a35050565b6000612fb8828461476f565b6000612fb8828461474d565b612fa98160405160240161303d91815260200190565b60408051601f198184030181529190526020810180516001600160e01b031663f5b1bba960e01b179052613964565b6130976040518060800160405280606081526020016060815260200160008152602001606081525090565b604080516080810182526001600160a01b0384166000908152600960205291822060020180548291906130c9906147a5565b80601f01602080910402602001604051908101604052809291908181526020018280546130f5906147a5565b80156131425780601f1061311757610100808354040283529160200191613142565b820191906000526020600020905b81548152906001019060200180831161312557829003601f168201915b5050505050815260200160096000866001600160a01b03166001600160a01b03168152602001908152602001600020600301805461317f906147a5565b80601f01602080910402602001604051908101604052809291908181526020018280546131ab906147a5565b80156131f85780601f106131cd576101008083540402835291602001916131f8565b820191906000526020600020905b8154815290600101906020018083116131db57829003601f168201915b505050505081526020016001815260200160096000866001600160a01b03166001600160a01b03168152602001908152602001600020600401805461323c906147a5565b80601f0160208091040260200160405190810160405280929190818152602001828054613268906147a5565b80156132b55780601f1061328a576101008083540402835291602001916132b5565b820191906000526020600020905b81548152906001019060200180831161329857829003601f168201915b505050919092525090949350505050565b6132f86040518060a0016040528060008152602001606081526020016060815260200160608152602001606081525090565b60408051600280825260608201909252600091816020015b60608152602001906001900390816133105750506001600160a01b038416600090815260096020526040902060050180549192509061334e906147a5565b80601f016020809104026020016040519081016040528092919081815260200182805461337a906147a5565b80156133c75780601f1061339c576101008083540402835291602001916133c7565b820191906000526020600020905b8154815290600101906020018083116133aa57829003601f168201915b5050505050816000815181106133df576133df61483d565b602002602001018190525060096000846001600160a01b03166001600160a01b03168152602001908152602001600020600601805461341d906147a5565b80601f0160208091040260200160405190810160405280929190818152602001828054613449906147a5565b80156134965780601f1061346b57610100808354040283529160200191613496565b820191906000526020600020905b81548152906001019060200180831161347957829003601f168201915b5050505050816001815181106134ae576134ae61483d565b602090810291909101015260408051600480825260a0820190925260009181602001602082028036833701905050905030816000815181106134f2576134f261483d565b6001600160a01b039283166020918202929092018101919091528582166000908152600890915260409020600401548251911690829060019081106135395761353961483d565b6001600160a01b039290921660209283029190910182015260408051600280825260608201835260009391929091830190803683370190505090506000198160008151811061358a5761358a61483d565b6020026020010181815250506000816001815181106135ab576135ab61483d565b60200260200101818152505060006040518060a0016040528060018152602001858152602001848152602001838152602001600067ffffffffffffffff8111156135f7576135f7614853565b60405190808252806020026020018201604052801561362a57816020015b60608152602001906001900390816136155790505b5090529695505050505050565b61365b60405180606001604052806060815260200160608152602001606081525090565b60408051600580825260c082019092526000916020820160a08036833701905050905082816000815181106136925761369261483d565b6020026020010181815250506012816001815181106136b3576136b361483d565b60200260200101818152505062250491816003815181106136d6576136d661483d565b60200260200101818152505060086000856001600160a01b03166001600160a01b03168152602001908152602001600020600701548160048151811061371e5761371e61483d565b602090810291909101015260408051600280825260608201909252600091816020016020820280368337019050509050660aa87bee538000816000815181106137695761376961483d565b60200260200101818152505066038d7ea4c68000816001815181106137905761379061483d565b602090810291909101015260408051600680825260e08201909252600091816020016020820280368337505060045482519293506001600160a01b0316918391506000906137e0576137e061483d565b6001600160a01b0392831660209182029290920101526002548251911690829060019081106138115761381161483d565b6001600160a01b0392831660209182029290920101526001548251911690829060029081106138425761384261483d565b60200260200101906001600160a01b031690816001600160a01b03168152505030816003815181106138765761387661483d565b60200260200101906001600160a01b031690816001600160a01b0316815250506000816004815181106138ab576138ab61483d565b6001600160a01b0392831660209182029290920101526003548251911690829060059081106138dc576138dc61483d565b6001600160a01b03909216602092830291909101820152604080516060810182529485529084019290925290820152905092915050565b6105e98282604051602401613929929190614623565b60408051601f198184030181529190526020810180516001600160e01b0316630fa3f34560e01b179052613964565b6000612fb8828461478e565b80516a636f6e736f6c652e6c6f67602083016000808483855afa5050505050565b508054613991906147a5565b6000825580601f106139a1575050565b601f016020900490600052602060002090810190612fa99190613b2a565b5080546000825590600052602060002090810190612fa99190613b2a565b8280546139e9906147a5565b90600052602060002090601f016020900481019282613a0b5760008555613a51565b82601f10613a2457805160ff1916838001178555613a51565b82800160010185558215613a51579182015b82811115613a51578251825591602001919060010190613a36565b50613a5d929150613b2a565b5090565b828054828255906000526020600020908101928215613a51579160200282015b82811115613a5157825182546001600160a01b0319166001600160a01b03909116178255602090920191600190910190613a81565b828054613ac2906147a5565b90600052602060002090601f016020900481019282613ae45760008555613a51565b82601f10613afd5782800160ff19823516178555613a51565b82800160010185558215613a51579182015b82811115613a51578235825591602001919060010190613b0f565b5b80821115613a5d5760008155600101613b2b565b8035613b4a81614869565b919050565b60008083601f840112613b6157600080fd5b50813567ffffffffffffffff811115613b7957600080fd5b6020830191508360208260051b8501011115613b9457600080fd5b9250929050565b600082601f830112613bac57600080fd5b6040516040810167ffffffffffffffff8282108183111715613bd057613bd0614853565b816040528291508486604087011115613be857600080fd5b6000805b6002811015613c2557823584811115613c03578283fd5b613c0f8a828b01613c74565b8652506020948501949290920191600101613bec565b5093979650505050505050565b60008083601f840112613c4457600080fd5b50813567ffffffffffffffff811115613c5c57600080fd5b602083019150836020828501011115613b9457600080fd5b600082601f830112613c8557600080fd5b813567ffffffffffffffff811115613c9f57613c9f614853565b613cb2601f8201601f1916602001614704565b818152846020838601011115613cc757600080fd5b816020850160208301376000918101602001919091529392505050565b803560ff81168114613b4a57600080fd5b600060208284031215613d0757600080fd5b8135612fb881614869565b60008060408385031215613d2557600080fd5b8235613d3081614869565b91506020830135613d4081614869565b809150509250929050565b600080600060608486031215613d6057600080fd5b8351613d6b81614869565b6020850151909350613d7c81614869565b6040850151909250613d8d81614869565b809150509250925092565b60008060008060008060c08789031215613db157600080fd5b613dba87613b3f565b9550613dc860208801613b3f565b9450604087013567ffffffffffffffff80821115613de557600080fd5b613df18a838b01613c74565b95506060890135915080821115613e0757600080fd5b613e138a838b01613c74565b94506080890135915080821115613e2957600080fd5b613e358a838b01613b9b565b935060a0890135915080821115613e4b57600080fd5b50613e5889828a01613b9b565b9150509295509295509295565b600080600080600060808688031215613e7d57600080fd5b8535613e8881614869565b94506020860135613e9881614869565b935060408601359250606086013567ffffffffffffffff811115613ebb57600080fd5b613ec788828901613c32565b969995985093965092949392505050565b60008060408385031215613eeb57600080fd5b8235613ef681614869565b915060208381013567ffffffffffffffff80821115613f1457600080fd5b818601915086601f830112613f2857600080fd5b813581811115613f3a57613f3a614853565b8060051b9150613f4b848301614704565b8181528481019084860184860187018b1015613f6657600080fd5b600095505b83861015613f89578035835260019590950194918601918601613f6b565b508096505050505050509250929050565b60008060408385031215613fad57600080fd5b8235613fb881614869565b946020939093013593505050565b60008060008060008060008060008060c08b8d031215613fe557600080fd5b613fee8b613b3f565b9950613ffc60208c01613ce4565b985060408b013567ffffffffffffffff8082111561401957600080fd5b6140258e838f01613b4f565b909a50985060608d013591508082111561403e57600080fd5b61404a8e838f01613b4f565b909850965060808d013591508082111561406357600080fd5b61406f8e838f01613c32565b909650945060a08d013591508082111561408857600080fd5b506140958d828e01613c32565b915080935050809150509295989b9194979a5092959850565b6000602082840312156140c057600080fd5b81518015158114612fb857600080fd5b6000602082840312156140e257600080fd5b5051919050565b600081518084526020808501945080840160005b838110156141225781516001600160a01b0316875295820195908201906001016140fd565b509495945050505050565b6000815180845260208085019450848260051b860182860160005b858110156141725783830389526141608383516141d8565b98850198925090840190600101614148565b5090979650505050505050565b600081518084526020808501945080840160005b8381101561412257815187529582019590820190600101614193565b81835281816020850137506000828201602090810191909152601f909101601f19169091010190565b6000815180845260005b818110156141fe576020818501810151868301820152016141e2565b81811115614210576000602083870101525b50601f01601f19169290920160200192915050565b6004811061424357634e487b7160e01b600052602160045260246000fd5b9052565b600081516060845261425c606085018261417f565b905060208301518482036020860152614275828261417f565b9150506040830151848203604086015261428f82826140e9565b95945050505050565b6001600160a01b038316815260408101612fb86020830184614225565b6020808252818101527f4f776e61626c653a2063616c6c6572206973206e6f7420746865206f776e6572604082015260600190565b60608152600084516080606084015261430660e08401826141d8565b9050602080870151605f198086850301608087015261432584836141d8565b9350604089015160a087015260608901519150808685030160c08701525061434d83826141d8565b9250508382038185015260a08201865183528187015160a08385015281815180845260c08601915060c08160051b8701019350848301925060005b818110156143b65760bf198786030183526143a48585516141d8565b94509285019291850191600101614388565b505050506040870151915082810360408401526143d381836140e9565b915050606086015182820360608401526143ed828261417f565b91505060808601518282036080840152614407828261412d565b92505050828103604084015261441d8185614247565b9695505050505050565b60208152614439602082018351614225565b6000602083015161445560408401826001600160a01b03169052565b5060408301516001600160a01b03811660608401525060608301516101a08060808501526144876101c08501836141d8565b91506080850151601f19808685030160a08701526144a584836141d8565b935060a087015191506144c360c08701836001600160a01b03169052565b60c08701519150808685030160e0870152506144df83826140e9565b92505060e08501516101006144fe818701836001600160a01b03169052565b860151610120868101919091528601516101408087019190915286015161016080870191909152860151610180808701919091529095015193019290925250919050565b602080825282516001600160a01b03168282015282015160009061457160408401826001600160a01b03169052565b50604083015160e0606084015261458c6101008401826141d8565b90506060840151601f19808584030160808601526145aa83836141d8565b925060808601519150808584030160a08601526145c783836141d8565b925060a08601519150808584030160c08601526145e483836141d8565b925060c08601519150808584030160e08601525061428f82826141d8565b82815260406020820152600061461b604083018461417f565b949350505050565b82815260406020820152600061461b60408301846141d8565b60ff8c16815260c06020820152600061465960c083018c8e6141af565b828103604084015261466c818b8d6141af565b9050828103606084015261468181898b6141af565b905082810360808401526146968187896141af565b905082810360a08401526146ab8185876141af565b9e9d5050505050505050505050505050565b6000808335601e198436030181126146d457600080fd5b83018035915067ffffffffffffffff8211156146ef57600080fd5b602001915036819003821315613b9457600080fd5b604051601f8201601f1916810167ffffffffffffffff8111828210171561472d5761472d614853565b604052919050565b60008219821115614748576147486147fb565b500190565b60008261476a57634e487b7160e01b600052601260045260246000fd5b500490565b6000816000190483118215151615614789576147896147fb565b500290565b6000828210156147a0576147a06147fb565b500390565b600181811c908216806147b957607f821691505b602082108114156147da57634e487b7160e01b600052602260045260246000fd5b50919050565b60006000198214156147f4576147f46147fb565b5060010190565b634e487b7160e01b600052601160045260246000fd5b634e487b7160e01b600052602160045260246000fd5b634e487b7160e01b600052603160045260246000fd5b634e487b7160e01b600052603260045260246000fd5b634e487b7160e01b600052604160045260246000fd5b6001600160a01b0381168114612fa957600080fdfea264697066735822122053bea15bfde1cca4ac9d9237b5e9c341e4475b28bf424e912ad51982f9c1accb64736f6c63430008070033",
  "linkReferences": {},
  "deployedLinkReferences": {}
}