{
  "_format": "hh-sol-artifact-1",
  "contractName": "V4Migration",
  "sourceName": "contracts/v4migration/V4Migration.sol",
  "abi": [
    {
      "inputs": [
        {
          "internalType": "address",
          "name": "_ERC721FactoryAddress",
          "type": "address"
        },
        {
          "internalType": "address",
          "name": "_oceanAddress",
          "type": "address"
        },
        {
          "internalType": "address",
          "name": "_poolTemplate",
          "type": "address"
        },
        {
          "internalType": "address",
          "name": "_daemon",
          "type": "address"
        }
      ],
      "stateMutability": "nonpayable",
      "type": "constructor"
    },
    {
      "anonymous": false,
      "inputs": [
        {
          "indexed": false,
          "internalType": "address",
          "name": "poolAddress",
          "type": "address"
        },
        {
          "indexed": false,
          "internalType": "uint256",
          "name": "date",
          "type": "uint256"
        }
      ],
      "name": "Cancelled",
      "type": "event"
    },
    {
      "anonymous": false,
      "inputs": [
        {
          "indexed": false,
          "internalType": "address",
          "name": "poolAddress",
          "type": "address"
        },
        {
          "indexed": false,
          "internalType": "enum V4Migration.migrationStatus",
          "name": "status",
          "type": "uint8"
        }
      ],
      "name": "Completed",
      "type": "event"
    },
    {
      "anonymous": false,
      "inputs": [
        {
          "indexed": false,
          "internalType": "address",
          "name": "nftAddress",
          "type": "address"
        },
        {
          "indexed": false,
          "internalType": "address",
          "name": "newDTAddress",
          "type": "address"
        },
        {
          "indexed": false,
          "internalType": "address",
          "name": "newPool",
          "type": "address"
        },
        {
          "indexed": false,
          "internalType": "address",
          "name": "v3DTAddress",
          "type": "address"
        },
        {
          "indexed": false,
          "internalType": "uint256",
          "name": "lptRounding",
          "type": "uint256"
        }
      ],
      "name": "NewPool",
      "type": "event"
    },
    {
      "anonymous": false,
      "inputs": [
        {
          "indexed": false,
          "internalType": "address",
          "name": "newStakingContract",
          "type": "address"
        },
        {
          "indexed": false,
          "internalType": "uint256",
          "name": "date",
          "type": "uint256"
        }
      ],
      "name": "NewStakingContract",
      "type": "event"
    },
    {
      "anonymous": false,
      "inputs": [
        {
          "indexed": true,
          "internalType": "address",
          "name": "previousOwner",
          "type": "address"
        },
        {
          "indexed": true,
          "internalType": "address",
          "name": "newOwner",
          "type": "address"
        }
      ],
      "name": "OwnershipTransferred",
      "type": "event"
    },
    {
      "anonymous": false,
      "inputs": [
        {
          "indexed": false,
          "internalType": "address",
          "name": "poolAddress",
          "type": "address"
        },
        {
          "indexed": false,
          "internalType": "uint256",
          "name": "date",
          "type": "uint256"
        }
      ],
      "name": "Started",
      "type": "event"
    },
    {
      "inputs": [],
      "name": "ERC721FactoryAddress",
      "outputs": [
        {
          "internalType": "address",
          "name": "",
          "type": "address"
        }
      ],
      "stateMutability": "view",
      "type": "function"
    },
    {
      "inputs": [
        {
          "internalType": "address",
          "name": "_staking",
          "type": "address"
        }
      ],
      "name": "addMigrationStaking",
      "outputs": [],
      "stateMutability": "nonpayable",
      "type": "function"
    },
    {
      "inputs": [
        {
          "internalType": "address",
          "name": "_poolAddress",
          "type": "address"
        },
        {
          "internalType": "uint256",
          "name": "noOfShares",
          "type": "uint256"
        }
      ],
      "name": "addShares",
      "outputs": [],
      "stateMutability": "nonpayable",
      "type": "function"
    },
    {
      "inputs": [],
      "name": "blocksWindow",
      "outputs": [
        {
          "internalType": "uint256",
          "name": "",
          "type": "uint256"
        }
      ],
      "stateMutability": "view",
      "type": "function"
    },
    {
      "inputs": [
        {
          "internalType": "address",
          "name": "poolAddress",
          "type": "address"
        }
      ],
      "name": "cancelMigration",
      "outputs": [],
      "stateMutability": "nonpayable",
      "type": "function"
    },
    {
      "inputs": [],
      "name": "daemon",
      "outputs": [
        {
          "internalType": "address",
          "name": "",
          "type": "address"
        }
      ],
      "stateMutability": "view",
      "type": "function"
    },
    {
      "inputs": [
        {
          "internalType": "address",
          "name": "v3poolAddress",
          "type": "address"
        }
      ],
      "name": "getPoolStatus",
      "outputs": [
        {
          "components": [
            {
              "internalType": "enum V4Migration.migrationStatus",
              "name": "status",
              "type": "uint8"
            },
            {
              "internalType": "address",
              "name": "poolV3Address",
              "type": "address"
            },
            {
              "internalType": "address",
              "name": "poolV4Address",
              "type": "address"
            },
            {
              "internalType": "string",
              "name": "didV3",
              "type": "string"
            },
            {
              "internalType": "string",
              "name": "didV4",
              "type": "string"
            },
            {
              "internalType": "address",
              "name": "owner",
              "type": "address"
            },
            {
              "internalType": "address[]",
              "name": "poolShareOwners",
              "type": "address[]"
            },
            {
              "internalType": "address",
              "name": "dtV3Address",
              "type": "address"
            },
            {
              "internalType": "uint256",
              "name": "totalOcean",
              "type": "uint256"
            },
            {
              "internalType": "uint256",
              "name": "totalDTBurnt",
              "type": "uint256"
            },
            {
              "internalType": "uint256",
              "name": "newLPTAmount",
              "type": "uint256"
            },
            {
              "internalType": "uint256",
              "name": "lptRounding",
              "type": "uint256"
            },
            {
              "internalType": "uint256",
              "name": "deadline",
              "type": "uint256"
            }
          ],
          "internalType": "struct V4Migration.PoolStatus",
          "name": "",
          "type": "tuple"
        }
      ],
      "stateMutability": "view",
      "type": "function"
    },
    {
      "inputs": [
        {
          "internalType": "address",
          "name": "poolAddress",
          "type": "address"
        },
        {
          "internalType": "address",
          "name": "userAddress",
          "type": "address"
        }
      ],
      "name": "getShareAllocation",
      "outputs": [
        {
          "components": [
            {
              "internalType": "uint256",
              "name": "userV3Shares",
              "type": "uint256"
            },
            {
              "internalType": "uint256",
              "name": "userV4Shares",
              "type": "uint256"
            },
            {
              "internalType": "bool",
              "name": "alreadyAdded",
              "type": "bool"
            }
          ],
          "internalType": "struct V4Migration.shareAllocation",
          "name": "",
          "type": "tuple"
        }
      ],
      "stateMutability": "view",
      "type": "function"
    },
    {
      "inputs": [
        {
          "internalType": "address",
          "name": "v3poolAddress",
          "type": "address"
        }
      ],
      "name": "getTokensDetails",
      "outputs": [
        {
          "components": [
            {
              "internalType": "address",
              "name": "erc721Address",
              "type": "address"
            },
            {
              "internalType": "address",
              "name": "dtV4Address",
              "type": "address"
            },
            {
              "internalType": "string",
              "name": "nftName",
              "type": "string"
            },
            {
              "internalType": "string",
              "name": "nftSymbol",
              "type": "string"
            },
            {
              "internalType": "string",
              "name": "tokenURI",
              "type": "string"
            },
            {
              "internalType": "string",
              "name": "erc20Name",
              "type": "string"
            },
            {
              "internalType": "string",
              "name": "erc20Symbol",
              "type": "string"
            }
          ],
          "internalType": "struct V4Migration.TokensDetails",
          "name": "",
          "type": "tuple"
        }
      ],
      "stateMutability": "view",
      "type": "function"
    },
    {
      "inputs": [
        {
          "internalType": "address",
          "name": "poolAddress",
          "type": "address"
        },
        {
          "internalType": "uint256[]",
          "name": "minAmountsOut",
          "type": "uint256[]"
        }
      ],
      "name": "liquidateAndCreatePool",
      "outputs": [],
      "stateMutability": "nonpayable",
      "type": "function"
    },
    {
      "inputs": [],
      "name": "oceanAddress",
      "outputs": [
        {
          "internalType": "address",
          "name": "",
          "type": "address"
        }
      ],
      "stateMutability": "view",
      "type": "function"
    },
    {
      "inputs": [
        {
          "internalType": "address",
          "name": "operator",
          "type": "address"
        },
        {
          "internalType": "address",
          "name": "from",
          "type": "address"
        },
        {
          "internalType": "uint256",
          "name": "tokenId",
          "type": "uint256"
        },
        {
          "internalType": "bytes",
          "name": "data",
          "type": "bytes"
        }
      ],
      "name": "onERC721Received",
      "outputs": [
        {
          "internalType": "bytes4",
          "name": "",
          "type": "bytes4"
        }
      ],
      "stateMutability": "pure",
      "type": "function"
    },
    {
      "inputs": [],
      "name": "owner",
      "outputs": [
        {
          "internalType": "address",
          "name": "",
          "type": "address"
        }
      ],
      "stateMutability": "view",
      "type": "function"
    },
    {
      "inputs": [],
      "name": "poolTemplate",
      "outputs": [
        {
          "internalType": "address",
          "name": "",
          "type": "address"
        }
      ],
      "stateMutability": "view",
      "type": "function"
    },
    {
      "inputs": [
        {
          "internalType": "address",
          "name": "_poolAddress",
          "type": "address"
        },
        {
          "internalType": "uint256",
          "name": "noOfShares",
          "type": "uint256"
        }
      ],
      "name": "removeShares",
      "outputs": [],
      "stateMutability": "nonpayable",
      "type": "function"
    },
    {
      "inputs": [],
      "name": "renounceOwnership",
      "outputs": [],
      "stateMutability": "nonpayable",
      "type": "function"
    },
    {
      "inputs": [
        {
          "internalType": "address",
          "name": "poolAddress",
          "type": "address"
        },
        {
          "internalType": "uint8",
          "name": "_metaDataState",
          "type": "uint8"
        },
        {
          "internalType": "string[]",
          "name": "_metaDataDecryptorUrlAndAddress",
          "type": "string[]"
        },
        {
          "internalType": "bytes[]",
          "name": "bytess",
          "type": "bytes[]"
        },
        {
          "internalType": "bytes",
          "name": "_metaDataHash",
          "type": "bytes"
        },
        {
          "internalType": "string",
          "name": "_didV4",
          "type": "string"
        }
      ],
      "name": "setMetadataAndTransferNFT",
      "outputs": [],
      "stateMutability": "nonpayable",
      "type": "function"
    },
    {
      "inputs": [],
      "name": "staking",
      "outputs": [
        {
          "internalType": "address",
          "name": "",
          "type": "address"
        }
      ],
      "stateMutability": "view",
      "type": "function"
    },
    {
      "inputs": [
        {
          "internalType": "address",
          "name": "_dtAddress",
          "type": "address"
        },
        {
          "internalType": "address",
          "name": "_poolAddress",
          "type": "address"
        },
        {
          "internalType": "string",
          "name": "_didV3",
          "type": "string"
        },
        {
          "internalType": "string",
          "name": "_tokenURI",
          "type": "string"
        },
        {
          "internalType": "string[2]",
          "name": "_nftNameAndSymbol",
          "type": "string[2]"
        },
        {
          "internalType": "string[2]",
          "name": "_erc20NameAndSymbol",
          "type": "string[2]"
        }
      ],
      "name": "startMigration",
      "outputs": [],
      "stateMutability": "nonpayable",
      "type": "function"
    },
    {
      "inputs": [
        {
          "internalType": "address",
          "name": "poolAddress",
          "type": "address"
        }
      ],
      "name": "thresholdMet",
      "outputs": [
        {
          "internalType": "bool",
          "name": "",
          "type": "bool"
        }
      ],
      "stateMutability": "view",
      "type": "function"
    },
    {
      "inputs": [
        {
          "internalType": "address",
          "name": "newOwner",
          "type": "address"
        }
      ],
      "name": "transferOwnership",
      "outputs": [],
      "stateMutability": "nonpayable",
      "type": "function"
    }
  ],
  "bytecode": "0x6080604052670de0b6b3a764000060075560646008553480156200002257600080fd5b50604051620050fb380380620050fb83398101604081905262000045916200029b565b62000050336200022e565b600180556001600160a01b038416620000bc5760405162461bcd60e51b8152602060048201526024808201527f466163746f727920416464726573732063616e6e6f74206265206164647265736044820152637328302960e01b60648201526084015b60405180910390fd5b6001600160a01b0383166200011f5760405162461bcd60e51b815260206004820152602260248201527f4f6365616e20416464726573732063616e6e6f74206265206164647265737328604482015261302960f01b6064820152608401620000b3565b6001600160a01b038216620001825760405162461bcd60e51b815260206004820152602260248201527f506f6f6c2074656d706c6174652063616e6e6f74206265206164647265737328604482015261302960f01b6064820152608401620000b3565b6001600160a01b038116620001da5760405162461bcd60e51b815260206004820152601b60248201527f4461656d6f6e2063616e6e6f74206265206164647265737328302900000000006044820152606401620000b3565b600280546001600160a01b039586166001600160a01b0319918216179091556003805494861694821694909417909355600480549285169284169290921790915560068054919093169116179055620002f8565b600080546001600160a01b038381166001600160a01b0319831681178455604051919092169283917f8be0079c531659141344cd1fd0a4f28419497f9722a3daafe3b4186f6b6457e09190a35050565b80516001600160a01b03811681146200029657600080fd5b919050565b60008060008060808587031215620002b257600080fd5b620002bd856200027e565b9350620002cd602086016200027e565b9250620002dd604086016200027e565b9150620002ed606086016200027e565b905092959194509250565b614df380620003086000396000f3fe608060405234801561001057600080fd5b50600436106101375760003560e01c8063715018a6116100b8578063beffbb891161007c578063beffbb89146102de578063c5cc1f67146102f1578063d6e9b12214610308578063e159e80a1461031b578063ea0098ca1461032e578063f2fde38b1461034157600080fd5b8063715018a61461027c5780638475e4a1146102845780638da5cb5b146102a7578063933bb12c146102b8578063a2e18294146102cb57600080fd5b80633570de7d116100ff5780633570de7d146101ec578063419a70c1146101ff5780634a0e86371461021f5780634cf088d9146102565780636f022ac41461026957600080fd5b80630e81073c1461013c578063150b7a021461015157806315d9d2f91461018e5780632439d9d0146101ae578063268519c0146101c1575b600080fd5b61014f61014a366004614049565b610354565b005b61017061015f3660046140be565b630a85bd0160e11b95945050505050565b6040516001600160e01b031990911681526020015b60405180910390f35b6101a161019c366004614131565b61060e565b6040516101859190614222565b61014f6101bc366004614131565b6108f6565b6006546101d4906001600160a01b031681565b6040516001600160a01b039091168152602001610185565b6004546101d4906001600160a01b031681565b61021261020d366004614131565b6109dd565b604051610185919061433d565b61023261022d366004614406565b610d4e565b60408051825181526020808401519082015291810151151590820152606001610185565b6005546101d4906001600160a01b031681565b61014f610277366004614131565b610dc8565b61014f611368565b610297610292366004614131565b61139e565b6040519015158152602001610185565b6000546001600160a01b03166101d4565b61014f6102c6366004614486565b6114c2565b6002546101d4906001600160a01b031681565b61014f6102ec366004614049565b6123b6565b6102fa60085481565b604051908152602001610185565b61014f61031636600461463d565b6128fb565b61014f610329366004614760565b612dc4565b6003546101d4906001600160a01b031681565b61014f61034f366004614131565b6130eb565b600260015414156103805760405162461bcd60e51b815260040161037790614848565b60405180910390fd5b60026001556001600160a01b03821660009081526009602052604090205460ff1660038111156103b2576103b261414e565b6001146104105760405162461bcd60e51b815260206004820152602660248201527f416464696e6720736861726573206973206e6f742063757272656e746c7920616044820152651b1b1bddd95960d21b6064820152608401610377565b6001600160a01b0382166000908152600960205260409020600b015443106104855760405162461bcd60e51b815260206004820152602260248201527f446561646c696e65207265616368656420666f7220616464696e672073686172604482015261657360f01b6064820152608401610377565b6040516323b872dd60e01b8152336004820152306024820152604481018290526001600160a01b038316906323b872dd906064016020604051808303816000875af11580156104d8573d6000803e3d6000fd5b505050506040513d601f19601f820116820180604052508101906104fc919061487f565b6105445760405162461bcd60e51b81526020600482015260196024820152784661696c656420746f207472616e736665722073686172657360381b6044820152606401610377565b6001600160a01b0382166000908152600b602090815260408083203384529091529020546105729082613186565b6001600160a01b0383166000908152600b6020908152604080832033845290915290209081556002015460ff16610606576001600160a01b0382166000818152600b6020908152604080832033808552908352818420600201805460ff1916600190811790915594845260098352908320600501805494850181558352912090910180546001600160a01b03191690911790555b505060018055565b61069e604080516101a08101909152806000815260200160006001600160a01b0316815260200160006001600160a01b03168152602001606081526020016060815260200160006001600160a01b031681526020016060815260200160006001600160a01b0316815260200160008152602001600081526020016000815260200160008152602001600081525090565b6001600160a01b0382166000908152600960205260409081902081516101a081019092528054829060ff1660038111156106da576106da61414e565b60038111156106eb576106eb61414e565b815281546001600160a01b03610100909104811660208301526001830154166040820152600282018054606090920191610724906148a1565b80601f0160208091040260200160405190810160405280929190818152602001828054610750906148a1565b801561079d5780601f106107725761010080835404028352916020019161079d565b820191906000526020600020905b81548152906001019060200180831161078057829003601f168201915b505050505081526020016003820180546107b6906148a1565b80601f01602080910402602001604051908101604052809291908181526020018280546107e2906148a1565b801561082f5780601f106108045761010080835404028352916020019161082f565b820191906000526020600020905b81548152906001019060200180831161081257829003601f168201915b505050918352505060048201546001600160a01b031660208083019190915260058301805460408051828502810185018252828152940193928301828280156108a157602002820191906000526020600020905b81546001600160a01b03168152600190910190602001808311610883575b505050918352505060068201546001600160a01b03166020820152600782015460408201526008820154606082015260098201546080820152600a82015460a0820152600b9091015460c09091015292915050565b6000546001600160a01b031633146109205760405162461bcd60e51b8152600401610377906148dc565b6001600160a01b0381166109845760405162461bcd60e51b815260206004820152602560248201527f5374616b696e6720636f6e74726163742063616e6e6f74206265206164647265604482015264737328302960d81b6064820152608401610377565b600580546001600160a01b0319166001600160a01b038316908117909155604080519182524260208301527f0cbc59df03893807ea60c5e7a8b6d138911f3065a64d36192ed1c3ce196beb3f910160405180910390a150565b610a2f6040518060e0016040528060006001600160a01b0316815260200160006001600160a01b0316815260200160608152602001606081526020016060815260200160608152602001606081525090565b6001600160a01b038083166000908152600a6020908152604091829020825160e0810184528154851681526001820154909416918401919091526002810180549192840191610a7d906148a1565b80601f0160208091040260200160405190810160405280929190818152602001828054610aa9906148a1565b8015610af65780601f10610acb57610100808354040283529160200191610af6565b820191906000526020600020905b815481529060010190602001808311610ad957829003601f168201915b50505050508152602001600382018054610b0f906148a1565b80601f0160208091040260200160405190810160405280929190818152602001828054610b3b906148a1565b8015610b885780601f10610b5d57610100808354040283529160200191610b88565b820191906000526020600020905b815481529060010190602001808311610b6b57829003601f168201915b50505050508152602001600482018054610ba1906148a1565b80601f0160208091040260200160405190810160405280929190818152602001828054610bcd906148a1565b8015610c1a5780601f10610bef57610100808354040283529160200191610c1a565b820191906000526020600020905b815481529060010190602001808311610bfd57829003601f168201915b50505050508152602001600582018054610c33906148a1565b80601f0160208091040260200160405190810160405280929190818152602001828054610c5f906148a1565b8015610cac5780601f10610c8157610100808354040283529160200191610cac565b820191906000526020600020905b815481529060010190602001808311610c8f57829003601f168201915b50505050508152602001600682018054610cc5906148a1565b80601f0160208091040260200160405190810160405280929190818152602001828054610cf1906148a1565b8015610d3e5780601f10610d1357610100808354040283529160200191610d3e565b820191906000526020600020905b815481529060010190602001808311610d2157829003601f168201915b5050505050815250509050919050565b610d74604051806060016040528060008152602001600081526020016000151581525090565b506001600160a01b039182166000908152600b602090815260408083209390941682529182528290208251606081018452815481526001820154928101929092526002015460ff1615159181019190915290565b60026001541415610deb5760405162461bcd60e51b815260040161037790614848565b60026001556000546001600160a01b0316331480610e2557506001600160a01b038181166000908152600960205260409020600401541633145b610e675760405162461bcd60e51b81526020600482015260136024820152722737ba1027a8231037b910222a1037bbb732b960691b6044820152606401610377565b60016001600160a01b03821660009081526009602052604090205460ff166003811115610e9657610e9661414e565b14610efd5760405162461bcd60e51b815260206004820152603160248201527f43757272656e7420706f6f6c2073746174757320646f6573206e6f7420616c6c6044820152701bddc81d1bc818d85b98d95b08141bdbdb607a1b6064820152608401610377565b610f068161139e565b15610f4b5760405162461bcd60e51b8152602060048201526015602482015274151a1c995cda1bdb1908185b1c9958591e481b595d605a1b6044820152606401610377565b60005b6001600160a01b0382166000908152600960209081526040918290206005018054835181840281018401909452808452610fc59392830182828015610fbc57602002820191906000526020600020905b81546001600160a01b03168152600190910190602001808311610f9e575b50505050505190565b8110156111fe576001600160a01b0382166000908152600b602090815260408083206009909252822060050180548391908590811061100657611006614911565b60009182526020808320909101546001600160a01b0390811684528382019490945260409283018220549387168252600b81528282206009909152918120600501805493945090928391908690811061106157611061614911565b60009182526020808320909101546001600160a01b0390811684528382019490945260409283018220949094559186168252600b8352808220600990935281206005018054919291839190869081106110bc576110bc614911565b6000918252602080832091909101546001600160a01b0390811684528382019490945260409283018220600201805460ff19169515159590951790945591861680835260099093529020600501805463a9059cbb91908590811061112257611122614911565b60009182526020909120015460405160e083901b6001600160e01b03191681526001600160a01b039091166004820152602481018490526044016020604051808303816000875af115801561117b573d6000803e3d6000fd5b505050506040513d601f19601f8201168201806040525081019061119f919061487f565b6111eb5760405162461bcd60e51b815260206004820152601e60248201527f4661696c656420746f207472616e73666572206261636b2073686172657300006044820152606401610377565b50806111f68161493d565b915050610f4e565b506001600160a01b038116600090815260096020526040812080546001600160a81b03191681556001810180546001600160a01b0319169055906112456002830182613e6a565b611253600383016000613e6a565b6004820180546001600160a01b0319169055611273600583016000613ea4565b506006810180546001600160a01b03199081169091556000600783018190556008830181905560098301819055600a808401829055600b9093018190556001600160a01b038416815260209290925260408220805482168155600181018054909216909155906112e66002830182613e6a565b6112f4600383016000613e6a565b611302600483016000613e6a565b611310600583016000613e6a565b61131e600683016000613e6a565b5050604080516001600160a01b03831681524360208201527f36ea5cd5608625e789af0282eecdb4eae1cb7c1cf6d0ec3f9a84f35be850260b910160405180910390a15060018055565b6000546001600160a01b031633146113925760405162461bcd60e51b8152600401610377906148dc565b61139c6000613199565b565b6040516370a0823160e01b815230600482015260009081906001600160a01b038416906370a0823190602401602060405180830381865afa1580156113e7573d6000803e3d6000fd5b505050506040513d601f19601f8201168201806040525081019061140b9190614958565b90508061141b5750600092915050565b6000836001600160a01b03166318160ddd6040518163ffffffff1660e01b8152600401602060405180830381865afa15801561145b573d6000803e3d6000fd5b505050506040513d601f19601f8201168201806040525081019061147f9190614958565b9050671158e460913d00006114a9836114a3600754856131e990919063ffffffff16565b906131f5565b116114b8575060019392505050565b5060009392505050565b600260015414156114e55760405162461bcd60e51b815260040161037790614848565b600260019081556001600160a01b03831660009081526009602052604090205460ff1660038111156115195761151961414e565b146115835760405162461bcd60e51b815260206004820152603460248201527f43757272656e7420706f6f6c2073746174757320646f6573206e6f7420616c6c6044820152731bddc81d1bc81b1a5c5d5a59185d1948141bdbdb60621b6064820152608401610377565b6040516370a0823160e01b81523060048201526000906001600160a01b038416906370a0823190602401602060405180830381865afa1580156115ca573d6000803e3d6000fd5b505050506040513d601f19601f820116820180604052508101906115ee9190614958565b90506115f98361139e565b6116395760405162461bcd60e51b8152602060048201526011602482015270151a1c995cda1bdb19081b9bdd081b595d607a1b6044820152606401610377565b6001600160a01b0383166000908152600960205260409020600b015443116116a35760405162461bcd60e51b815260206004820181905260248201527f43616e6e6f742062652063616c6c6564206265666f726520646561646c696e656044820152606401610377565b6001600160a01b03831660008181526009602052604090819020805460ff191660021790555163b02f0b7360e01b815263b02f0b73906116e990849086906004016149a1565b600060405180830381600087803b15801561170357600080fd5b505af1158015611717573d6000803e3d6000fd5b50506040516370a0823160e01b81523060048201526001600160a01b03861692506370a082319150602401602060405180830381865afa15801561175f573d6000803e3d6000fd5b505050506040513d601f19601f820116820180604052508101906117839190614958565b156117c85760405162461bcd60e51b81526020600482015260156024820152744661696c656420746f2072656465656d204c50547360581b6044820152606401610377565b6001600160a01b03838116600090815260096020526040908190206006015490516370a0823160e01b81523060048201529116906370a0823190602401602060405180830381865afa158015611822573d6000803e3d6000fd5b505050506040513d601f19601f820116820180604052508101906118469190614958565b6001600160a01b03848116600090815260096020526040908190206008019290925560035491516370a0823160e01b81523060048201529116906370a0823190602401602060405180830381865afa1580156118a6573d6000803e3d6000fd5b505050506040513d601f19601f820116820180604052508101906118ca9190614958565b6001600160a01b038481166000908152600960205260409081902060078101939093556006830154600890930154905163a9059cbb60e01b815260016004820152602481019190915291169063a9059cbb906044016020604051808303816000875af115801561193e573d6000803e3d6000fd5b505050506040513d601f19601f82011682018060405250810190611962919061487f565b6119a65760405162461bcd60e51b81526020600482015260156024820152744661696c656420746f206275726e2076332044547360581b6044820152606401610377565b6002546001600160a01b038481166000908152600960205260409020600701546003546119d893908316921690613201565b600254600090819081906001600160a01b031663ca4abc696119f9886132db565b611a0289613535565b6001600160a01b038a16600090815260096020526040902060080154611a29908b90613885565b6040518463ffffffff1660e01b8152600401611a4793929190614a57565b6060604051808303816000875af1158015611a66573d6000803e3d6000fd5b505050506040513d601f19601f82011682018060405250810190611a8a9190614b94565b919450925090506001600160a01b038316611ade5760405162461bcd60e51b815260206004820152601460248201527311985a5b1959081d1bc818dc99585d194813919560621b6044820152606401610377565b6001600160a01b038216611b345760405162461bcd60e51b815260206004820152601a60248201527f4661696c656420746f206372656174652064617461746f6b656e0000000000006044820152606401610377565b6001600160a01b038116611b825760405162461bcd60e51b815260206004820152601560248201527411985a5b1959081d1bc818dc99585d1948141bdbdb605a1b6044820152606401610377565b6040516370a0823160e01b81523060048201526001600160a01b038216906370a0823190602401602060405180830381865afa158015611bc6573d6000803e3d6000fd5b505050506040513d601f19601f82011682018060405250810190611bea9190614958565b6001600160a01b03878116600090815260096020818152604080842092830195909555600191820180546001600160a01b031990811688871617909155600a90915293822080548516888516178155018054909316918516919091179091555b6001600160a01b0387166000908152600960209081526040918290206005018054835181840281018401909452808452611cbf9392830182828015610fbc576020028201919060005260206000209081546001600160a01b03168152600190910190602001808311610f9e5750505050505190565b811015611f1d576001600160a01b0387166000908152600b60209081526040808320600990925282206005018054611d4a9289926114a39286919088908110611d0a57611d0a614911565b60009182526020808320909101546001600160a01b039081168452838201949094526040928301822054938f1682526009908190529190200154906131e9565b6001600160a01b0389166000908152600b6020908152604080832060099092528220600501805493945091929091839186908110611d8a57611d8a614911565b60009182526020808320909101546001600160a01b039081168452838201949094526040928301822094909455918b168252600b8352808220600990935281206005018054849392919086908110611de457611de4614911565b60009182526020808320909101546001600160a01b0390811684528382019490945260409283018220600101949094558b83168152600990935290912060050180549185169163a9059cbb919085908110611e4157611e41614911565b60009182526020909120015460405160e083901b6001600160e01b03191681526001600160a01b039091166004820152602481018490526044016020604051808303816000875af1158015611e9a573d6000803e3d6000fd5b505050506040513d601f19601f82011682018060405250810190611ebe919061487f565b611f0a5760405162461bcd60e51b815260206004820152601760248201527f4661696c656420746f207472616e73666572204c5054730000000000000000006044820152606401610377565b5080611f158161493d565b915050611c4a565b506003546040516370a0823160e01b81523060048201526001600160a01b03909116906370a0823190602401602060405180830381865afa158015611f66573d6000803e3d6000fd5b505050506040513d601f19601f82011682018060405250810190611f8a9190614958565b15611fef5760405162461bcd60e51b815260206004820152602f60248201527f4661696c656420746f2063726561746520706f6f6c2c2077726f6e67204f434560448201526e10538818985b185b98d9481b19599d608a1b6064820152608401610377565b6001600160a01b03868116600090815260096020526040908190206006015490516370a0823160e01b81523060048201529116906370a0823190602401602060405180830381865afa158015612049573d6000803e3d6000fd5b505050506040513d601f19601f8201168201806040525081019061206d9190614958565b156120d35760405162461bcd60e51b815260206004820152603060248201527f4661696c656420746f2063726561746520706f6f6c2c2077726f6e672076332060448201526f11151cc818985b185b98d9481b19599d60821b6064820152608401610377565b6040516370a0823160e01b8152306004820152612165906001600160a01b038316906370a0823190602401602060405180830381865afa15801561211b573d6000803e3d6000fd5b505050506040513d601f19601f8201168201806040525081019061213f9190614958565b60405180604001604052806008815260200167131415081b19599d60c21b815250613b60565b6040516370a0823160e01b81523060048201526000906001600160a01b038316906370a0823190602401602060405180830381865afa1580156121ac573d6000803e3d6000fd5b505050506040513d601f19601f820116820180604052508101906121d09190614958565b6001600160a01b03881660009081526009602090815260409182902060050180548351818402810184019094528084529394506122519361224c9392830182828015610fbc576020028201919060005260206000209081546001600160a01b03168152600190910190602001808311610f9e5750505050505190565b613ba9565b6001600160a01b03871660009081526009602090815260409182902060050180548351818402810184019094528084526122c69392830182828015610fbc576020028201919060005260206000209081546001600160a01b03168152600190910190602001808311610f9e5750505050505190565b81111561232f5760405162461bcd60e51b815260206004820152603160248201527f4661696c656420746f2063726561746520706f6f6c2c2077726f6e67206e6577604482015270081314150818985b185b98d9481b19599d607a1b6064820152608401610377565b6001600160a01b03878116600090815260096020908152604091829020600a810185905560060154825188851681528785169281019290925285841682840152909216606083015260808201839052517f203f7d57eb5f8e8bb4db1dabba576f6c3b74c39b49ef43ba3cc2a1e78a91054d9181900360a00190a15050600180555050505050565b600260015414156123d95760405162461bcd60e51b815260040161037790614848565b60026001556001600160a01b03821660009081526009602052604090205460ff16600381111561240b5761240b61414e565b6001146124735760405162461bcd60e51b815260206004820152603060248201527f43757272656e7420706f6f6c2073746174757320646f6573206e6f7420616c6c60448201526f1bddc81cda185c99481c995b5bdd985b60821b6064820152608401610377565b6001600160a01b0382166000908152600960205260409020600b015443106124e95760405162461bcd60e51b8152602060048201526024808201527f446561646c696e65207265616368656420666f722072656d6f76696e672073686044820152636172657360e01b6064820152608401610377565b6001600160a01b0382166000908152600b602090815260408083203384529091529020548111156125735760405162461bcd60e51b815260206004820152602e60248201527f5573657220646f6573206e6f7420686176652073756666696369656e7420736860448201526d061726573206c6f636b65642075760941b6064820152608401610377565b6001600160a01b0382166000908152600b602090815260408083203384529091528120546125a19083613bee565b6001600160a01b0384166000818152600b6020908152604080832033808552925291829020849055905163a9059cbb60e01b81526004810191909152602481018590529192509063a9059cbb906044016020604051808303816000875af1158015612610573d6000803e3d6000fd5b505050506040513d601f19601f82011682018060405250810190612634919061487f565b61267c5760405162461bcd60e51b81526020600482015260196024820152784661696c656420746f207472616e736665722073686172657360381b6044820152606401610377565b6001600160a01b0383166000908152600b602090815260408083203384529091529020546128f2576001600160a01b0383166000908152600b602090815260408083203384529091528120600201805460ff191690555b6001600160a01b03841660009081526009602090815260409182902060050180548351818402810184019094528084526127489392830182828015610fbc576020028201919060005260206000209081546001600160a01b03168152600190910190602001808311610f9e5750505050505190565b8110156128f0576001600160a01b038416600090815260096020526040902060050180543391908390811061277f5761277f614911565b6000918252602090912001546001600160a01b031614156128de576001600160a01b03841660009081526009602090815260409182902060050180548351818402810184019094528084529092600192612815928591830182828015610fbc576020028201919060005260206000209081546001600160a01b03168152600190910190602001808311610f9e5750505050505190565b61281f9190614be1565b8154811061282f5761282f614911565b60009182526020808320909101546001600160a01b0387811684526009909252604090922060050180549190921691908390811061286f5761286f614911565b600091825260208083209190910180546001600160a01b0319166001600160a01b0394851617905591861681526009909152604090206005018054806128b7576128b7614bf8565b600082815260209020810160001990810180546001600160a01b03191690550190556128f0565b806128e88161493d565b9150506126d3565b505b50506001805550565b6002600154141561291e5760405162461bcd60e51b815260040161037790614848565b60026001556040516355138f0d60e11b81523360048201526000906001600160a01b0388169063aa271e1a90602401602060405180830381865afa15801561296a573d6000803e3d6000fd5b505050506040513d601f19601f8201168201806040525081019061298e919061487f565b90506001811515146129f05760405162461bcd60e51b815260206004820152602560248201527f43616c6c6572206973206e6f74207468652064617461746f6b656e207075626c60448201526434b9b432b960d91b6064820152608401610377565b6001600160a01b03861660009081526009602052604090205460ff166003811115612a1d57612a1d61414e565b15612a7d5760405162461bcd60e51b815260206004820152602a60248201527f4d6967726174696f6e2070726f636573732068617320616c7265616479206265604482015269195b881cdd185c9d195960b21b6064820152608401610377565b604080516101a081018252600181526001600160a01b0388166020808301919091526000828401819052606083018990528351808301855281815260808401523360a0840152835181815291820190935260c08201908152602001896001600160a01b0316815260200160008152602001600081526020016000815260200160008152602001612b186008544361318690919063ffffffff16565b90526040805160e08101825260008082526020808301829052885183850152888101516060840152608083018a9052875160a08401528781015160c08401526001600160a01b038c1682526009905291909120825181549394509192849290829060ff19166001836003811115612b9157612b9161414e565b02179055506020828101518254610100600160a81b0319166101006001600160a01b039283160217835560408401516001840180546001600160a01b0319169190921617905560608301518051612bee9260028501920190613ec2565b5060808201518051612c0a916003840191602090910190613ec2565b5060a08201516004820180546001600160a01b0319166001600160a01b0390921691909117905560c08201518051612c4c916005840191602090910190613f46565b5060e08201516006820180546001600160a01b03199081166001600160a01b0393841617909155610100840151600784015561012084015160088401556101408401516009840155610160840151600a8085019190915561018090940151600b909301929092558a811660009081526020938452604090819020855181548516908416178155858501516001820180549095169316929092179092559083015180518493612d01926002850192910190613ec2565b5060608201518051612d1d916003840191602090910190613ec2565b5060808201518051612d39916004840191602090910190613ec2565b5060a08201518051612d55916005840191602090910190613ec2565b5060c08201518051612d71916006840191602090910190613ec2565b5050604080516001600160a01b038b1681524360208201527fec650fcc375710553756d538ba0b333d528957ad95af9ec6d1a23481441dfd2292500160405180910390a150506001805550505050505050565b60026001541415612de75760405162461bcd60e51b815260040161037790614848565b60026001556006546001600160a01b03163314612e385760405162461bcd60e51b815260206004820152600f60248201526e27a7262c9027a823102220a2a6a7a760891b6044820152606401610377565b60026001600160a01b038b1660009081526009602052604090205460ff166003811115612e6757612e6761414e565b14612eb45760405162461bcd60e51b815260206004820152601b60248201527f4d6967726174696f6e206e6f7420636f6d706c657465642079657400000000006044820152606401610377565b6001600160a01b03808b166000908152600a602052604081205490911690635d5dea24908b908b908b9081612eeb57612eeb614911565b9050602002810190612efd9190614c0e565b8c8c6001818110612f1057612f10614911565b9050602002810190612f229190614c0e565b8c8c6000818110612f3557612f35614911565b9050602002810190612f479190614c0e565b8e8e6001818110612f5a57612f5a614911565b9050602002810190612f6c9190614c0e565b8e8e6040518c63ffffffff1660e01b8152600401612f949b9a99989796959493929190614c7e565b600060405180830381600087803b158015612fae57600080fd5b505af1158015612fc2573d6000803e3d6000fd5b505050506001600160a01b038a81166000908152600a60209081526040808320546009909252918290206004908101549251632142170760e11b81523091810191909152918316602483015260016044830152909116906342842e0e90606401600060405180830381600087803b15801561303c57600080fd5b505af1158015613050573d6000803e3d6000fd5b5050506001600160a01b038b16600090815260096020526040902061307a91506003018383613f9b565b506001600160a01b038a1660009081526009602052604090819020805460ff1916600390811790915590517f162ecc7501c07263186694a5a0a65a3c3615c3dae3f2ec95a61d043d3322a3a5916130d3918d9190614cff565b60405180910390a15050600180555050505050505050565b6000546001600160a01b031633146131155760405162461bcd60e51b8152600401610377906148dc565b6001600160a01b03811661317a5760405162461bcd60e51b815260206004820152602660248201527f4f776e61626c653a206e6577206f776e657220697320746865207a65726f206160448201526564647265737360d01b6064820152608401610377565b61318381613199565b50565b60006131928284614d1c565b9392505050565b600080546001600160a01b038381166001600160a01b0319831681178455604051919092169283917f8be0079c531659141344cd1fd0a4f28419497f9722a3daafe3b4186f6b6457e09190a35050565b60006131928284614d34565b60006131928284614d53565b604051636eb1769f60e11b81523060048201526001600160a01b038381166024830152600091839186169063dd62ed3e90604401602060405180830381865afa158015613252573d6000803e3d6000fd5b505050506040513d601f19601f820116820180604052508101906132769190614958565b6132809190614d1c565b604080516001600160a01b038616602482015260448082018490528251808303909101815260649091019091526020810180516001600160e01b031663095ea7b360e01b1790529091506132d5908590613bfa565b50505050565b6133066040518060800160405280606081526020016060815260200160008152602001606081525090565b604080516080810182526001600160a01b0384166000908152600a6020529182206002018054829190613338906148a1565b80601f0160208091040260200160405190810160405280929190818152602001828054613364906148a1565b80156133b15780601f10613386576101008083540402835291602001916133b1565b820191906000526020600020905b81548152906001019060200180831161339457829003601f168201915b50505050508152602001600a6000866001600160a01b03166001600160a01b0316815260200190815260200160002060030180546133ee906148a1565b80601f016020809104026020016040519081016040528092919081815260200182805461341a906148a1565b80156134675780601f1061343c57610100808354040283529160200191613467565b820191906000526020600020905b81548152906001019060200180831161344a57829003601f168201915b5050505050815260200160018152602001600a6000866001600160a01b03166001600160a01b0316815260200190815260200160002060040180546134ab906148a1565b80601f01602080910402602001604051908101604052809291908181526020018280546134d7906148a1565b80156135245780601f106134f957610100808354040283529160200191613524565b820191906000526020600020905b81548152906001019060200180831161350757829003601f168201915b505050919092525090949350505050565b6135676040518060a0016040528060008152602001606081526020016060815260200160608152602001606081525090565b60408051600280825260608201909252600091816020015b606081526020019060019003908161357f5750506001600160a01b0384166000908152600a602052604090206005018054919250906135bd906148a1565b80601f01602080910402602001604051908101604052809291908181526020018280546135e9906148a1565b80156136365780601f1061360b57610100808354040283529160200191613636565b820191906000526020600020905b81548152906001019060200180831161361957829003601f168201915b50505050508160008151811061364e5761364e614911565b6020026020010181905250600a6000846001600160a01b03166001600160a01b03168152602001908152602001600020600601805461368c906148a1565b80601f01602080910402602001604051908101604052809291908181526020018280546136b8906148a1565b80156137055780601f106136da57610100808354040283529160200191613705565b820191906000526020600020905b8154815290600101906020018083116136e857829003601f168201915b50505050508160018151811061371d5761371d614911565b602090810291909101015260408051600480825260a08201909252600091816020016020820280368337019050509050308160008151811061376157613761614911565b6001600160a01b039283166020918202929092018101919091528582166000908152600990915260409020600401548251911690829060019081106137a8576137a8614911565b6001600160a01b03929092166020928302919091018201526040805160028082526060820183526000939192909183019080368337019050509050600019816000815181106137f9576137f9614911565b60200260200101818152505060006040518060a0016040528060018152602001858152602001848152602001838152602001600067ffffffffffffffff8111156138455761384561443f565b60405190808252806020026020018201604052801561387857816020015b60608152602001906001900390816138635790505b5090529695505050505050565b6138a960405180606001604052806060815260200160608152602001606081525090565b60408051600580825260c082019092526000916020820160a08036833701905050905082816000815181106138e0576138e0614911565b60200260200101818152505060128160018151811061390157613901614911565b602002602001018181525050622504918160038151811061392457613924614911565b60200260200101818152505060096000856001600160a01b03166001600160a01b03168152602001908152602001600020600701548160048151811061396c5761396c614911565b602090810291909101015260408051600280825260608201909252600091816020016020820280368337019050509050660aa87bee538000816000815181106139b7576139b7614911565b60200260200101818152505066038d7ea4c68000816001815181106139de576139de614911565b602090810291909101015260408051600680825260e08201909252600091816020016020820280368337505060055482519293506001600160a01b031691839150600090613a2e57613a2e614911565b6001600160a01b039283166020918202929092010152600354825191169082906001908110613a5f57613a5f614911565b6001600160a01b0392831660209182029290920101526002805483519216918391908110613a8f57613a8f614911565b60200260200101906001600160a01b031690816001600160a01b0316815250503081600381518110613ac357613ac3614911565b60200260200101906001600160a01b031690816001600160a01b031681525050600081600481518110613af857613af8614911565b6001600160a01b039283166020918202929092010152600454825191169082906005908110613b2957613b29614911565b6001600160a01b03909216602092830291909101820152604080516060810182529283529082019390935291820152905092915050565b613ba58282604051602401613b76929190614d75565b60408051601f198184030181529190526020810180516001600160e01b0316630fa3f34560e01b179052613cd1565b5050565b61318381604051602401613bbf91815260200190565b60408051601f198184030181529190526020810180516001600160e01b031663f5b1bba960e01b179052613cd1565b60006131928284614be1565b6000613c4f826040518060400160405280602081526020017f5361666545524332303a206c6f772d6c6576656c2063616c6c206661696c6564815250856001600160a01b0316613cf29092919063ffffffff16565b805190915015613ccc5780806020019051810190613c6d919061487f565b613ccc5760405162461bcd60e51b815260206004820152602a60248201527f5361666545524332303a204552433230206f7065726174696f6e20646964206e6044820152691bdd081cdd58d8d9595960b21b6064820152608401610377565b505050565b80516a636f6e736f6c652e6c6f67602083016000808483855afa5050505050565b6060613d018484600085613d09565b949350505050565b606082471015613d6a5760405162461bcd60e51b815260206004820152602660248201527f416464726573733a20696e73756666696369656e742062616c616e636520666f6044820152651c8818d85b1b60d21b6064820152608401610377565b843b613db85760405162461bcd60e51b815260206004820152601d60248201527f416464726573733a2063616c6c20746f206e6f6e2d636f6e74726163740000006044820152606401610377565b600080866001600160a01b03168587604051613dd49190614d8e565b60006040518083038185875af1925050503d8060008114613e11576040519150601f19603f3d011682016040523d82523d6000602084013e613e16565b606091505b5091509150613e26828286613e31565b979650505050505050565b60608315613e40575081613192565b825115613e505782518084602001fd5b8160405162461bcd60e51b81526004016103779190614daa565b508054613e76906148a1565b6000825580601f10613e86575050565b601f016020900490600052602060002090810190613183919061400f565b5080546000825590600052602060002090810190613183919061400f565b828054613ece906148a1565b90600052602060002090601f016020900481019282613ef05760008555613f36565b82601f10613f0957805160ff1916838001178555613f36565b82800160010185558215613f36579182015b82811115613f36578251825591602001919060010190613f1b565b50613f4292915061400f565b5090565b828054828255906000526020600020908101928215613f36579160200282015b82811115613f3657825182546001600160a01b0319166001600160a01b03909116178255602090920191600190910190613f66565b828054613fa7906148a1565b90600052602060002090601f016020900481019282613fc95760008555613f36565b82601f10613fe25782800160ff19823516178555613f36565b82800160010185558215613f36579182015b82811115613f36578235825591602001919060010190613ff4565b5b80821115613f425760008155600101614010565b6001600160a01b038116811461318357600080fd5b803561404481614024565b919050565b6000806040838503121561405c57600080fd5b823561406781614024565b946020939093013593505050565b60008083601f84011261408757600080fd5b50813567ffffffffffffffff81111561409f57600080fd5b6020830191508360208285010111156140b757600080fd5b9250929050565b6000806000806000608086880312156140d657600080fd5b85356140e181614024565b945060208601356140f181614024565b935060408601359250606086013567ffffffffffffffff81111561411457600080fd5b61412088828901614075565b969995985093965092949392505050565b60006020828403121561414357600080fd5b813561319281614024565b634e487b7160e01b600052602160045260246000fd5b6004811061418257634e487b7160e01b600052602160045260246000fd5b9052565b60005b838110156141a1578181015183820152602001614189565b838111156132d55750506000910152565b600081518084526141ca816020860160208601614186565b601f01601f19169290920160200192915050565b600081518084526020808501945080840160005b838110156142175781516001600160a01b0316875295820195908201906001016141f2565b509495945050505050565b60208152614234602082018351614164565b6000602083015161425060408401826001600160a01b03169052565b5060408301516001600160a01b03811660608401525060608301516101a08060808501526142826101c08501836141b2565b91506080850151601f19808685030160a08701526142a084836141b2565b935060a087015191506142be60c08701836001600160a01b03169052565b60c08701519150808685030160e0870152506142da83826141de565b92505060e08501516101006142f9818701836001600160a01b03169052565b860151610120868101919091528601516101408087019190915286015161016080870191909152860151610180808701919091529095015193019290925250919050565b602080825282516001600160a01b03168282015282015160009061436c60408401826001600160a01b03169052565b50604083015160e060608401526143876101008401826141b2565b90506060840151601f19808584030160808601526143a583836141b2565b925060808601519150808584030160a08601526143c283836141b2565b925060a08601519150808584030160c08601526143df83836141b2565b925060c08601519150808584030160e0860152506143fd82826141b2565b95945050505050565b6000806040838503121561441957600080fd5b823561442481614024565b9150602083013561443481614024565b809150509250929050565b634e487b7160e01b600052604160045260246000fd5b604051601f8201601f1916810167ffffffffffffffff8111828210171561447e5761447e61443f565b604052919050565b6000806040838503121561449957600080fd5b82356144a481614024565b915060208381013567ffffffffffffffff808211156144c257600080fd5b818601915086601f8301126144d657600080fd5b8135818111156144e8576144e861443f565b8060051b91506144f9848301614455565b818152918301840191848101908984111561451357600080fd5b938501935b8385101561453157843582529385019390850190614518565b8096505050505050509250929050565b600082601f83011261455257600080fd5b813567ffffffffffffffff81111561456c5761456c61443f565b61457f601f8201601f1916602001614455565b81815284602083860101111561459457600080fd5b816020850160208301376000918101602001919091529392505050565b600082601f8301126145c257600080fd5b6040516040810167ffffffffffffffff82821081831117156145e6576145e661443f565b604091825282918501868111156145fc57600080fd5b855b81811015614631578035838111156146165760008081fd5b61462289828a01614541565b855250602093840193016145fe565b50929695505050505050565b60008060008060008060c0878903121561465657600080fd5b61465f87614039565b955061466d60208801614039565b9450604087013567ffffffffffffffff8082111561468a57600080fd5b6146968a838b01614541565b955060608901359150808211156146ac57600080fd5b6146b88a838b01614541565b945060808901359150808211156146ce57600080fd5b6146da8a838b016145b1565b935060a08901359150808211156146f057600080fd5b506146fd89828a016145b1565b9150509295509295509295565b803560ff8116811461404457600080fd5b60008083601f84011261472d57600080fd5b50813567ffffffffffffffff81111561474557600080fd5b6020830191508360208260051b85010111156140b757600080fd5b60008060008060008060008060008060c08b8d03121561477f57600080fd5b6147888b614039565b995061479660208c0161470a565b985060408b013567ffffffffffffffff808211156147b357600080fd5b6147bf8e838f0161471b565b909a50985060608d01359150808211156147d857600080fd5b6147e48e838f0161471b565b909850965060808d01359150808211156147fd57600080fd5b6148098e838f01614075565b909650945060a08d013591508082111561482257600080fd5b5061482f8d828e01614075565b915080935050809150509295989b9194979a5092959850565b6020808252601f908201527f5265656e7472616e637947756172643a207265656e7472616e742063616c6c00604082015260600190565b60006020828403121561489157600080fd5b8151801515811461319257600080fd5b600181811c908216806148b557607f821691505b602082108114156148d657634e487b7160e01b600052602260045260246000fd5b50919050565b6020808252818101527f4f776e61626c653a2063616c6c6572206973206e6f7420746865206f776e6572604082015260600190565b634e487b7160e01b600052603260045260246000fd5b634e487b7160e01b600052601160045260246000fd5b600060001982141561495157614951614927565b5060010190565b60006020828403121561496a57600080fd5b5051919050565b600081518084526020808501945080840160005b8381101561421757815187529582019590820190600101614985565b828152604060208201526000613d016040830184614971565b600081518084526020808501808196508360051b8101915082860160005b85811015614a025782840389526149f08483516141b2565b988501989350908401906001016149d8565b5091979650505050505050565b6000815160608452614a2460608501826141de565b905060208301518482036020860152614a3d8282614971565b915050604083015184820360408601526143fd8282614971565b606081526000845160806060840152614a7360e08401826141b2565b9050602080870151605f1980868503016080870152614a9284836141b2565b9350604089015160a087015260608901519150808685030160c087015250614aba83826141b2565b9250508382038185015260a08201865183528187015160a08385015281815180845260c08601915060c08160051b8701019350848301925060005b81811015614b235760bf19878603018352614b118585516141b2565b94509285019291850191600101614af5565b50505050604087015191508281036040840152614b4081836141de565b91505060608601518282036060840152614b5a8282614971565b91505060808601518282036080840152614b7482826149ba565b925050508281036040840152614b8a8185614a0f565b9695505050505050565b600080600060608486031215614ba957600080fd5b8351614bb481614024565b6020850151909350614bc581614024565b6040850151909250614bd681614024565b809150509250925092565b600082821015614bf357614bf3614927565b500390565b634e487b7160e01b600052603160045260246000fd5b6000808335601e19843603018112614c2557600080fd5b83018035915067ffffffffffffffff821115614c4057600080fd5b6020019150368190038213156140b757600080fd5b81835281816020850137506000828201602090810191909152601f909101601f19169091010190565b60ff8c16815260c060208201526000614c9b60c083018c8e614c55565b8281036040840152614cae818b8d614c55565b90508281036060840152614cc381898b614c55565b90508281036080840152614cd8818789614c55565b905082810360a0840152614ced818587614c55565b9e9d5050505050505050505050505050565b6001600160a01b0383168152604081016131926020830184614164565b60008219821115614d2f57614d2f614927565b500190565b6000816000190483118215151615614d4e57614d4e614927565b500290565b600082614d7057634e487b7160e01b600052601260045260246000fd5b500490565b828152604060208201526000613d0160408301846141b2565b60008251614da0818460208701614186565b9190910192915050565b60208152600061319260208301846141b256fea2646970667358221220eeddb068829223a24a72c42919ba332d190db3be2b67c7bbae1d9cc2e00a7f9d64736f6c634300080a0033",
  "linkReferences": {},
  "deployedLinkReferences": {}
}